FHOGLD20120821023005
OHFLRG2700               MAMA FU'S
OD00001029029              CA                            Lime Persian #1 200 Ct -- Store @ 45 F Seedless                                      0001200 Ct         N19410               Packer                                  N00041.00N                              PRODUCE                       W20120819201208250000000014.74CA
OD00002073033              CA              10018337012129Bean Green Trimmed Round -- Ends Removed Washed Stor 40 F                            00025 Lb           N26007               Greenlin                                N00011.00N                              PRODUCE                       W20120819201208250000000024.37CA
OD00003093025              CA              00046045031609Cabbage Red -- 3-4 Heads Per 10#                                                     000110 Lb Sk       N15195               Frsh/Kth                                N00011.00N                              PRODUCE                       W20120819201208250000000010.00CA
OD00004095105              CA              00046045032361Ginger Root Fresh -- Store 40 F Peel To Use                                          000120Lb           N17600               Frsh/Kth                                N00005.45N                              PRODUCE                       W20120819201208250000000005.79CA
OD00005102025              CA              00611628916781Celery Stalk -- Tender Stalk Medium Store 34 F                                       00016 Ct           N91678               Mrkn/Fc                                 N00009.55N                              PRODUCE                       W20120819201208250000000010.95CA
OD00006104032              CA              00881471901023Herb Basil Fresh Box -- Pasta Poultry Seafood Sauces                                 00011 Lb Bx        N14200               Packer                                  N00001.60N                              PRODUCE                       W20120819201208250000000006.32CA
OD00007104045              CA              00046045032583Herb Mint Fresh -- Drinks Garnish Lamb Entrees                                       00018 Oz           N19790               Frsh/Kth                                N00000.70N                              PRODUCE                       W20120819201208250000000007.89CA
OD00008104164              CA                            Herb Lemon Grass -- Pei Wei                                                          00011 Lb           N18790               Packer                                  N00002.00N                              PRODUCE                       W20120819201208250000000008.42CA
OD00009104409              CA              10611628917402Cilantro Cello Wash & Trim -- Mex & Chinese Herb Store 34 F                          00041 Lb Pkg       N91740               Mrkn/Rss                                N00006.00N                              PRODUCE                       W20120819201208250000000017.58CA
OD00010108191              CA              00046045031722Cucumber Select -- Medium Sz Grn & White Store 45                                    00015 Lb Bag       N16822               Frsh/Kth                                N00005.35N                              PRODUCE                       W20120819201208250000000008.00CA
OD00011123001              CA                            Lettuce Iceberg 24 Ct -- Liner Pack Store 34 F                                       0001Cs             N19250               Fieldsel                                N00040.00N                              PRODUCE                       W20120819201208250000000017.89CA
OD00012140003              CA              00611628920849Mushroom White Medium -- Apx 215 Count Store 34 F                                    000110Lb Ctn       N92084               Mrkn/Fc                                 N00011.00N                              PRODUCE                       W20120819201208250000000015.68CA
OD00013140255              CA              00611628920863Mushroom Sliced -- Replacement For Item 140259                                       000110 Lb          N25957               Fieldsel                                N00010.80N                              PRODUCE                       W20120819201208250000000015.68CA
OD00014150105              CA              10611628921225Onion Green Iceless -- "Scallions"Stor 34F 2#=72 Ea                                  00042 Lb Ctn       N92122               Mrkn/Rss                                N00009.00N                              PRODUCE                       W20120819201208250000000015.05CA
OD00015155030              CA              00611628921419Onion Yellow Jumbo -- Mis-Shaped 65-75 Ct #2                                         000150 Lb          N20665               Fieldsel                                N00051.00N                              PRODUCE                       W20120819201208250000000018.42CA
OD00016165114              CA              00611628915364Pepper Bell Red Chopper -- Use For Chopping Or Dicing                                00011 1/9 Bu       N14820               Fieldsel                                N00026.00N                              PRODUCE                       W20120819201208250000000019.42CA
OD00017195003              CA              10611628926701Spinach Washed & Trimmed -- Flat Leaf For Salads                                     00042.5 Lb         N92670               Mrkn/Rss                                N00011.00N                              PRODUCE                       W20120819201208250000000015.42CA
OD00018210058              CA                            Tomato 5X6 Vine Ripe 2 Layer -- Field Pack Ready To Use                              000120 Lb          N24995               Fieldsel                                N00022.00N                              PRODUCE                       W20120819201208250000000017.37CA
OD00019210117              CA                            Tomato Roma #1 -- Medium Oblong Firm Texture                                         000125Lb Lug       N25044               Packer                                  N00025.65N                              PRODUCE                       W20120819201208250000000018.95CA
OD00020161035              CA                            Pea Sugar Snap -- Very Sweet Cook Lightly                                            000110 Lb          N21900               Packer                                  N00012.00N                              PRODUCE                       W20120819201208250000000019.47CA
OD00021095080              CA              00046045032330Daikon (Japanese Radish) -- Peel To Use Store 40 F                                   000110 Lb          N16890               Frsh/Kth                                N00011.00N                              PRODUCE                       W20120819201208250000000010.53CA
OD00022104038              CA                            Herb Basil Thai -- Store 50 Pasta Poultry Sauces                                     00011 Lb           N14322               Packer                                  N00001.00N                              PRODUCE                       W20120819201208250000000011.58CA
OD00023509209              CA              00734411055433Beef Sliced For Stir Fry -- Frozen                                                   000210 Lb          N5543                Quantum                                 N00022.00N                              MEAT                          W20120819201208250000000057.89CA
OD00024507319              CA              90023700007028Beef Stk Flat Iron Ch 8Oz -- Cryovac 2 Per Pkg                                       00248 Oz           Y12169-1208          Ibp                                     N00012.00N                              MEAT                          W20120819201208250000000006.61LB
OD00025232018              CA              10085958860385Bean Curd Baked -- 5 Spiced Tofu                                                     003610 Oz          N400938536           Goldcoin                                N00023.50N                              MEAT                          W20120819201208250000000057.82CA
OD00026232102              CA              00076371011051Tofu Soft                                                                            001214 Oz          N400905812           Hinoichi                                N00013.50N                              MEAT                          W20120819201208250000000018.34CA
OD00027999160              CA                            Tea Green Filter Bag -- Mama Fu's                                                    001020 Ct          NPER DENISE          Giant Un                                N00011.00N                              POULTRY                       W20120819201208250000000068.53CA
OD00028550259              CA              00045421008860Chicken Wing Lrg -- 1St & 2Nd Joint Cvp Raw                                          000410 Lb          N886                 Koch                                    N00042.00N                              POULTRY                       W20120819201208250000000082.95CA
OD00029550092              CA              00023700612922Chicken Breast B/S Mar Esl -- Jumbo Fresh Ext Shlf Life                              000410 Lb          N9336-0928           Tyson                                   N00042.37N                              POULTRY                       W20120819201208250000000057.16CA
OD00030550386              CA              00023700015587Chicken Tenders Raw Jumbo -- Unbrd 2Oz & Up Fresh Esl                                000410#Cw          N13782-0928          Tyson                                   N00042.00N                              POULTRY                       W20120819201208250000000086.68CA
OD00031473847              CA                            Squid Tubes & Tents 3-5 -- Raw Frozen                                                00202.5 Lb         N473847              Packer                                  N00034.60N                              SEAFOOD                       W20120819201208250000000134.21CA
OD00032467365              CA              00070041420419Shrimp Raw P&D 41-50 Ct -- Tail Off White                                            00052 Lb           NTVAPDI41            Censea                                  N00011.00N                              SEAFOOD                       W20120819201208250000000048.42CA
OD00033451452              CA                            Tuna Block Ahi Saku -- Sub For 451455                                                000211 Lb          NPFCTUNA             Certfrsh                                Y00024.00N                              SEAFOOD                       W20120819201208250000000352.93CA
OD00034451455              CA                            Tuna Block Ahi Saku                                                                  000211 Lb          NPFCSAKU             Java                                    Y00024.00N                              SEAFOOD                       W20120819201208250000000252.51CA
OD00035473168              CA              10073994004115Crab Meat Claw -- Pasteurized Refrigerated                                           00061 Lb           N4002050             Handy                                   N00007.50N                              SEAFOOD                       W20120819201208250000000053.16CA
OD00036662414              CA              00046045033443Dressing Vingret Raspberry                                                           00021 Gal          N19427BEK            Gldhrvst                                N00019.44N                              SAUCES                        W20120819201208250000000024.67CA
OD00037662142              CA              00141335128813Dressing Thai Peanut                                                                 00041 Gal          N1288                Kens                                    N00037.93N                              SAUCES                        W20120819201208250000000056.32CA
OD00038250010              CA              00046045026773Egg Fresh Shell Lg Usda Aa -- Usda Aa Grade Store 40 F                               000115 Dz          N5112600             Packer                                  N00023.50N                              SAUCES                        W20120819201208250000000026.11CA
OD00039393402              CA              10746025912009Egg Whole Ez W/Citric Refr -- Lb 10-12 Eggs Aseptic Gabletop                         00152 Lb.          N4602591200          Waldbaum                                N00031.65N                              SAUCES                        W20120819201208250000000043.55CA
OD00040662085              CA              00046045009394Mayonnaise Hvy Duty -- 73% Oil/Egg Reg Consistency                                   00041 Gal          N78106BEK            Kth/Cho                                 N00032.90N                              SAUCES                        M20120801201208310000000028.41CA
OD00041661013              CA              00024463101241Sauce Chili Sambal Oelek -- Replacement For Item 660242                              00048.5 Lb         N713233              Huy Fong                                Y00037.80N                              SAUCES                        W20120819201208250000000037.83CA
OD00042900939              CA              10639353406909Sauce Vegetarian Brown Mama Fu                                                       000864 Oz          N940690              Kagome                                  N00034.00N                              SAUCES                        W20120819201208250000000056.16CA
OD00043660620              CA              18850545757124Sauce Fish Thailand                                                                  0012750 Ml         N3008                Tiparos                                 N00046.00N                              SAUCES                        W20120819201208250000000017.89CA
OD00044900911              CA              10649353406960Sauce Teriyaki Mama Fu's                                                             000864 Oz          N940696              Kagome                                  N00034.00N                              SAUCES                        W20120819201208250000000047.75CA
OD00045660621              CA              06020717233809Sauce Hoi Sin -- Pekin Duck Sauce                                                    00065 Lb           N215364              Koonchun                                Y00034.65N                              SAUCES                        W20120819201208250000000028.95CA
OD00046900901              CA              10649353406984Sauce General Fu Mama Fu's                                                           000864 Oz          N940698              Kagome                                  N00034.00N                              SAUCES                        W20120819201208250000000038.45CA
OD00047661138              CA              10041390001533Sauce Soy Gluten Free -- Plastic Bottle                                              00061.6 Ltr        N00153               Kikkoman                                N00026.61N                              SAUCES                        W20120819201208250000000057.61CA
OD00048900898              CA              10649353406915Sauce Sweet Chili Kagome's                                                           000864 Oz          N940691              Kagome                                  N00034.00N                              SAUCES                        W20120819201208250000000036.95CA
OD00049661144              CA              00024463101166Sauce Chili Sriracha -- Good Tomato Flavor                                           001228 Oz          N713231              Huy Fong                                N00024.75N                              SAUCES                        W20120819201208250000000026.72CA
OD00050483814              CA              10070057610047Sauce Massaman -- Boil Or Steam In Bag                                               00042 Lb           N61004               Phillips                                Y00010.00N                              SAUCES                        W20120819201208250000000024.68CA
OD00051662363              CA              00046045024472Dressing Ranch Homestyle -- Shelf Stable                                             00041 Gal          N14793BEK            Kth/Home                                N00033.69N                              SAUCES                        W20120819201208250000000032.99CA
OD00052661113              CA              00041390001802Sauce Soy Bag In Box -- Cube Container                                               00014 Gal          N00180               Kikkoman                                N00040.50N                              SAUCES                        W20120819201208250000000024.02CA
OD00053662188              CA              40076539012706Dressing Sesame Oriental -- Refrigerate                                              00041 Gal          N127                 Natfresh                                N00042.31N                              SAUCES                        W20120819201208250000000056.31CA
OD00054660613              CA              06020717163809Sauce Soy Mushroom Dark                                                              000660 Oz          N212309              Koonchun                                Y00023.50N                              SAUCES                        W20120819201208250000000023.72CA
OD00055900848              CA              10649353406922Sauce Minced Chicken Mama Fu's                                                       000864 Oz          N940692              Kagome                                  N00034.00N                              SAUCES                        W20120819201208250000000055.85CA
OD00056483241              CA              00084579001642Broth Pho Concentrate                                                                00044 Lb           N1226050             Ctifoods                                Y00018.00N                              SAUCES                        W20120819201208250000000034.86CA
OD00057900912              CA              10649353406977Sauce Pot Sticker Mama Fu's                                                          000864 Oz          N940697              Kagome                                  N00034.00N                              SAUCES                        W20120819201208250000000040.66CA
OD00058900904              CA              10649353406991Sauce Wrap Mama Fu's                                                                 000864 Oz          N940699              Kagome                                  N00034.00N                              SAUCES                        W20120819201208250000000041.53CA
OD00059900859              CA              10649353406946Sauce Pad Thai Mama Fu's                                                             000864 Oz          N940694              Kagome                                  N00034.00N                              SAUCES                        W20120819201208250000000062.17CA
OD00060779082              CA              10041224871622Oil Sesame Toasted Pure -- For Oriental Cooking                                      001056 Oz          N87162               Roland                                  N00040.00N                              OILS                          W20120819201208250000000133.00CA
OD00061779177              CA              00026700131936Shortening Mel Fry Free Soy -- Soy Oil Trans Fat Free                                000135 Lb          N16502MFF            Melfry                                  N00036.70N                              OILS                          M20120801201208310000000035.98CA
OD00062779070              CA              00046045012332Oil Salad Pure Vegetable -- Soybean Oil Trans Fat Free                               000135 Lb          N54135BEK            Kth/Excl                                N00036.70N                              OILS                          W20120819201208250000000026.37CA
OD00063649317              CA                            Bean Threads -- Clear Noodle                                                         00257 Oz           N604513              Kaset                                   Y00011.50N                              STARCHES                      W20120819201208250000000033.01CA
OD00064372044              CA              10021000704436Macaroni & Cheese -- Single Srv Microwavable Pouch                                   00367 Oz           N2100070443          Kraft                                   N00017.25N                              STARCHES                      W20120819201208250000000029.65CA
OD00065233048              CA              10042524115300Noodle Chinese Egg Tiny K -- 1/16 In Square Noodle                                   00065 Lb           N301130006           Winghing                                N00031.50N                              STARCHES                      W20120819201208250000000031.99CA
OD00066701034              CA              00737557802022Rice Stick Pad Thai Noodle -- Medium 5Mm                                             003014 Oz          N603502              1000Elep                                Y00003.00N                              STARCHES                      W20120819201208250000000029.59CA
OD00067363418              CA              10044979013224Potato Mashed Redskin                                                                00064 Lb           NM22                 Lamb Sup                                N00025.99N                              STARCHES                      W20120819201208250000000030.27CA
OD00068654143              CA              00035200250177Rice Brown Med Grain                                                                 000150 Lb          N3520025017          Riceland                                Y00050.20N                              STARCHES                      W20120819201208250000000017.65CA
OD00069363410              CA              00072714122231Potato Sweet Fries Cc 7/16 -- Deep Grove Cc Ex Long Fancy                            00062.5 Lb         NMCF04566            Hsplendr                                N00015.60N                              STARCHES                      W20120819201208250000000027.63CA
OD00070654145              CA              00072806003066Rice Brown Pro X Fancy -- Natural Long Grain                                         000125 Lb          NB2PE25560           Producer                                N00025.20N                              STARCHES                      W20120819201208250000000008.33CA
OD00071701032              CA              60663676035060Rice Stick -- Thin White Noodle                                                      00601 Lb           N103506              1000Sail                                N00068.00N                              STARCHES                      W20120819201208250000000051.33CA
OD00072654002              CA              00046045008922Rice Long Grain 4% Broken -- Cooked Yield Is 7/1                                     000150 Lb          NB1BK50560           Kth/Excl                                N00050.60N                              STARCHES                      W20120819201208250000000015.52CA
OD00073701038              CA              30663676035090Rice Stick -- Chinese Product Very Thin                                              003016 Oz          N103509              Asa                                     N00034.00N                              STARCHES                      W20120819201208250000000028.41CA
OD00074811080              CA              10074826459011Base Chicken No Msg -- Refrigerate 1Lb Ylds 5 Gal                                    00121 Lb           N7482645901          Minors                                  N00012.00N                              FOOD OTHER                    W20120819201208250000000073.31CA
OD00075414221              CA              00081988233819Cake Chocolate Trpl Old Fash -- Pre Cut 14 Ct.                                       000210"            N223381              Elis                                    N00011.25N                              FOOD OTHER                    W20120819201208250000000059.32CA
OD00076415306              CA              10749017079445Cheesecake Xango Original -- Filled Tortilla Wrap                                    00484.3 Oz         N7944                Swt Strt                                N00014.27N                              FOOD OTHER                    W20120819201208250000000070.06CA
OD00077287760              CA              00071899004424Ice Cream Vanilla Homemade -- Gold Rim Flavor                                        00013 Gal          N507                 Bluebell                                N00001.93N                              FOOD OTHER                    W20120819201208250000000020.55CA
OD00078774038              CA052100010687  10052100010684Cinnamon Ground -- U                                                                 000118 Oz          N900223208           Mcormick                                N00001.15N                              FOOD OTHER                    W20120819201208250000000007.08CA
OD00079774048              CA005210032304  10052100323043Coriander Ground -- U                                                                000114 Oz          N932304              Mcormick                                N00001.00N                              FOOD OTHER                    W20120819201208250000000007.32CA
OD00080235006              CA              00425247216104Egg Roll Wrapper 6X6 -- Refrigerated                                                 001228 Ct          N302161712           Winghing                                N00019.00N                              FOOD OTHER                    W20120819201208250000000024.06CA
OD00081235025              CA              12442524510071Wonton Wrapper Thick -- Refrigerated                                                 002414 Oz          N302107524           Winghing                                N00022.00N                              FOOD OTHER                    W20120819201208250000000026.52CA
OD00082380272              CA              30076366561227Egg Roll Pork & Veg 3 Oz                                                             00603 Oz           N56122               Gldntigr                                N00012.75N                              FOOD OTHER                    W20120819201208250000000033.36CA
OD00083029088              CA              10611628918768Juice Lime Fresh Squeeze -- 100% Natural Store @ 38 F                                00161 Qt           N91876               Mrkn/Rss                                N00028.20N                              FOOD OTHER                    W20120819201208250000000047.43CA
OD00084620161              CA              10038900009141Juice Pineapple 100% -- Rtu Can                                                      00486 Oz           N00914               Dole                                    N00025.00N                              FOOD OTHER                    W20120819201208250000000017.34CA
OD00085650474              CA              00046045013780Ketchup Fancy 33% Solids -- California Thick Style                                   0006#10            NBNRY599             Kth/Excl                                N00047.90N                              FOOD OTHER                    W20120819201208250000000020.05CA
OD00086674024              CA              60072940115818Ketchup Individual 9 Gram Pc -- Replacement For Item 900548                          10009 Gram         NREDY59GTH           Red Gold                                N00023.00N                              FOOD OTHER                    W20120819201208250000000016.09CA
OD00087798043              CA              10041224860084Milk Coconut                                                                         0006100 Oz         N86008               Roland                                  N00044.00N                              FOOD OTHER                    W20120819201208250000000053.42CA
OD00088774152              CA005210032367  10052100323678Paprika Extra Fancy -- U                                                             00015.25 Lb        N932367              Mcormick                                N00005.65N                              FOOD OTHER                    W20120819201208250000000037.02CA
OD00089701025              CA              48663676035334Rice Paper 8.5" 22 Cm -- Dry                                                         004812 Oz          N603533              Asa                                     Y00038.50N                              FOOD OTHER                    W20120819201208250000000046.88CA
OD00090774323              CA052100010717  10052100010714Curry Powder Ground                                                                  00011 Lb           N900223211           Mcormick                                N00001.00N                              FOOD OTHER                    W20120819201208250000000008.82CA
OD00091900182              CA              00076500997072Peanut Dry Roasted                                                                   00065 Lb           NPFC6538             Pfchangs                                Y00031.00N                              FOOD OTHER                    W20120819201208250000000047.62CA
OD00092900187              CA              00076500997065Cashew Dry Roasted 320 Ct                                                            00065 Lb           NPFC6508             Pfchangs                                Y00031.00N                              FOOD OTHER                    W20120819201208250000000180.79CA
OD00093994007              CA                            Seasoning Chicken Fajita -- Special Order Item / Grocery                             00065 Lb           N7541                Fiesta                                  N00034.20N                              FOOD OTHER                    W20120819201208250000000178.28CA
OD00094600349              CA              10038900004689Pineapple Chunks In Juice -- Fancy 250-290 Ct 69 Oz Dw                               0006#10            N00468               Dole                                    N00046.00N                              FOOD OTHER                    W20120819201208250000000033.05CA
OD00095380158              CA              10076366562268Potsticker Pork & Veg                                                                01201.2 Oz         N56226               Gldntigr                                N00009.53N                              FOOD OTHER                    W20120819201208250000000025.39CA
OD00096676182              CA              10024600017029Salt Kosher Coarse Grind -- Boxes Not Iodized                                        00123 Lb           N1702                Morton                                  N00039.79N                              FOOD OTHER                    W20120819201208250000000019.16CA
OD00097676025              CA              00024600011020Salt Plain Table -- Free Running                                                     000125 Lb          N1102                Morton                                  N00025.50N                              FOOD OTHER                    W20120819201208250000000004.28CA
OD00098774481              CA                            Seasoning Bonefish                                                                   00017 Lb           N10093               Txcustom                                N00008.00N                              FOOD OTHER                    W20120819201208250000000023.26CA
OD00099774281              CA              00663676175436Sesame Seed Black                                                                    000616 Oz          N117543              Asa                                     N00006.50N                              FOOD OTHER                    W20120819201208250000000024.14CA
OD00100697120              CA              81542923121400Starch Corn                                                                          000150 Lb          N697120              Packer                                  N00051.65N                              FOOD OTHER                    W20120819201208250000000017.37CA
OD00101697105              CA              00761720073100Starch Corn -- Thicken Gravy & Sauces                                                000125 Lb          N2001566             Argo                                    N00025.90N                              FOOD OTHER                    W20120819201208250000000016.16CA
OD00102697130              CA              87115530100340Starch Potato From Holand -- To Be Replaced By Item 697131                           000155 Lb          N704050              Avebe                                   Y00054.90Y697131                        FOOD OTHER                    W20120819201208250000000057.52CA
OD00103693115              CA              00078684024391Batter Mix Tempura -- Lightly Seasoned Crispy                                        00065 Lb           N00730300            Bunge                                   N00031.20N                              FOOD OTHER                    W20120819201208250000000028.33CA
OD00104780007              CA              00072100022015Sugar Pure Cane Granulated -- Replacement For Item 780048                            000150 Lb          N120514              Imperial                                N00051.10N                              FOOD OTHER                    W20120819201208250000000031.63CA
OD00105792122              CA              00051500050545Syrup Platescapers Choc                                                              001219.50 Oz       N5150005054          Smuckers                                N00019.00N                              FOOD OTHER                    W20120819201208250000000026.41CA
OD00106792119              CA              00051500050576Syrup Platescapers Raspbry                                                           001219.25 Oz       N5150005057          Smuckers                                N00019.00N                              FOOD OTHER                    W20120819201208250000000030.22CA
OD00107686223              CA              10041224705200Vinegar Rice Wine -- Japan Seasoned                                                  00041 Gal          N70520               Roland                                  N00037.00N                              FOOD OTHER                    W20120819201208250000000026.05CA
OD00108772190              CA                            Cookie Fortune Ind Wrapped -- 350 Ct                                                 00017 Lb           NCSWCOB-PFK          Goldbowl                                N00008.00N                              FOOD OTHER                    W20120819201208250000000008.72CA
OD00109285155              CA              10040900500320Cream Whipped 20% Aerosol -- Dairy Fresh                                             001214 Oz          N5003200             Mornstar                                N00016.00N                              FOOD OTHER                    W20120819201208250000000022.97CA
OD00110380233              CA              00035367690397Egg Roll Vegetable -- No Msg Added                                                   00723 Oz           N69039               Minh                                    N00015.00N                              FOOD OTHER                    W20120819201208250000000039.68CA
OD00111688007              CA              00046045010727Flour Hotel & Restaurant -- Replacement For Item 688044                              000150 Lb          N00821               Kth/Excl                                N00051.05N                              FOOD OTHER                    W20120819201208250000000015.11CA
OD00112793060              CA              00072188009489Honey Pure -- Pure Nat Flavor 1 Gal=12 Lb                                            00041 Gal          N00948               Burleson                                N00050.10N                              FOOD OTHER                    W20120819201208250000000142.58CA
OD00113774299              CA              00078013000195Garlic Chop In Water -- All Natural Keep Refrigerated                                000632 Oz          NGW6032              Greatgar                                N00013.40N                              FOOD OTHER                    W20120819201208250000000021.16CA
OD00114650587              CA              01663676095016Mushroom Shitake Whole Dried -- Dehydrated                                           00015 Lb           N109501              Asa                                     Y00027.00N                              FOOD OTHER                    W20120819201208250000000045.15CA
OD00115774724              CA              10041500823253Mustard Flour Chinese Style                                                          000150# Bag        N4150082325          Frenchs                                 N00052.50N                              FOOD OTHER                    W20120819201208250000000068.14CA
OD00116795205              CA              00046045015265Nut Topping Peanut Dr/Us -- Granulated Dry Rstd Unsalted U                           00032 Lb           NB795205             Kth/Excl                                N00006.75N                              FOOD OTHER                    W20120819201208250000000024.79CA
OD00117774898              CA              10052100549924Pepper White Ground                                                                  000118 Oz          N900029945           Classic                                 N00008.04N                              FOOD OTHER                    W20120819201208250000000012.32CA
OD00118774840              CA005210032112  10052100321124Pepper Black Ground Shaker -- 26 Mesh Handy Fill Pouch U                             00012 Lb           N932112              Mcormick                                N00006.45N                              FOOD OTHER                    M20120801201208310000000021.65CA
OD00119650303              CA              10034700130658Potato Whole New 60-80 Ct -- Fcy Med Size Peeled 74 Oz Dw K                          0006#10            N13065001            Allens                                  N00048.00N                              FOOD OTHER                    W20120819201208250000000030.60CA
OD00120774260              CA              00663676175405Sesame Seed Black                                                                    00065 Lb           N117540              Asa                                     N00022.00N                              FOOD OTHER                    W20120819201208250000000091.83CA
OD00121774286              CA              19314789134411Sesame Seed Whole White                                                              000110 Lb          N117544              Asa                                     Y00011.00N                              FOOD OTHER                    W20120819201208250000000039.44CA
OD00122686002              CA              00046045015654Vinegar White 50 Grain -- Distilled                                                  00041 Gal          N5046K               Kth/Excl                                N00036.70N                              FOOD OTHER                    W20120819201208250000000007.25CA
OD00123671028              CA              10041224701820Wasabi Powder -- Japanese Horseradish                                                000116 Oz          N70182               Roland                                  N00014.00N                              FOOD OTHER                    W20120819201208250000000006.23CA
OD00124650813              CA              06663676063232Water Chestnut Sliced                                                                0006#10            N106323              Asa                                     Y00048.00N                              FOOD OTHER                    W20120819201208250000000020.25CA
OD00125686091              CA              08503701222600Cooking Wine Rice                                                                    00043 Ltr          N712141              Lin Chen                                Y00037.15N                              FOOD OTHER                    W20120819201208250000000018.60CA
OD00126380130              CA              10071179003236Edamame Whole In Pod -- Culinary Select                                              00062.5 Lb         N003236              Culinary                                N00016.25N                              FOOD OTHER                    W20120819201208250000000023.45CA
OD00127742002              EA              00046045028623Cheese Cream Loaf Grade A -- Slightly Sweet Creamy Texture                           00103 Lb           N04705               Gldhrvst                                N00003.27N                              FOOD OTHER                    W20120819201208250000000005.14EA
OD00128639068              CA              10050000350107Creamer Liquid Regular -- Non-Dairy Shelf Stable                                     03603/8 Oz         N5000035010          Coffmate                                N00010.24N                              NA BEVERAGE                   W20120819201208250000000015.56CA
OD00129787009              CA              00049000981025Fount Syp Coca Cola Clssic Bib -- Bag-N-Box                                          00015 Gal          N04250010            Coke                                    N00054.35N                              NA BEVERAGE                   W20120819201208250000000061.20CA
OD00130787017              CA              00049000980912Fount Syp Diet Coke Bib -- Bag-N-Box                                                 00015 Gal          N04240010            Coke                                    N00043.30N                              NA BEVERAGE                   W20120819201208250000000061.20CA
OD00131787057              CA              00049000981636Fount Syp Fruit Punch Flashin -- Bib Soda No Juice                                   00015 Gal          N15560010            Hi C                                    N00055.50N                              NA BEVERAGE                   W20120819201208250000000061.20CA
OD00132787029              CA              00049000988338Fount Syp Lemonade Original -- Bag-N-Box                                             00015 Gal          N175637              Min Maid                                N00053.63N                              NA BEVERAGE                   W20120819201208250000000061.20CA
OD00133787033              CA              00049000986587Fount Syp Root Beer Bib -- Bag-N-Box                                                 00015 Gal          N15400010            Barqs                                   N00054.85N                              NA BEVERAGE                   W20120819201208250000000061.20CA
OD00134787013              CA              00049000980776Fount Syp Sprite Bib -- Bag-N-Box                                                    00015 Gal          N09560010            Sprite                                  N00053.35N                              NA BEVERAGE                   W20120819201208250000000061.20CA
OD00135787415              CA              00049000991628Fount Syp Coca Cola Zero -- Bag In Box                                               00015 Gal          N12930010            Cokezero                                N00043.88N                              NA BEVERAGE                   W20120819201208250000000061.20CA
OD00136787233              CA              00049000986235Fount Syp Mntn Berry Blast -- Powerade Bib                                           00012.5 Gal        N02360298            Powerade                                N00027.12N                              NA BEVERAGE                   W20120819201208250000000031.95CA
OD00137787087              CA              00049000989106Fount Syp Pib Xtra Bag-In-Box                                                        00015 Gal          N14450010            Mr Pibb                                 N00054.65N                              NA BEVERAGE                   W20120819201208250000000061.20CA
OD00138620040              CA              00031200204509Juice Cranberry -- Replacement For Item 620401                                       00485.5 Oz         N20450               Ocnspray                                N00019.75N                              NA BEVERAGE                   W20120819201208250000000018.87CA
OD00139600372              CA              10073600003303Pineapple Chunks In Juice                                                            0006#10            N311073600           Empress                                 N00045.90N                              NA BEVERAGE                   W20120819201208250000000032.13CA
OD00140620010              CA              10053500003740Juice Apple 100% -- Rtu/Shelf Stable K                                               00485.5 Oz         N5920034060          Bluebird                                N00018.00N                              NA BEVERAGE                   W20120819201208250000000019.20CA
OD00141620130              CA              10053500003689Juice Orange Unsweetened 100% -- Rtu                                                 00485.5 Oz         N5400034060          Bluebird                                N00024.50N                              NA BEVERAGE                   W20120819201208250000000021.46CA
OD00142675064              CA              10719098200045Sweetner Splenda -- No Calorie Sweetner                                              20001 Gm           N20004               Splenda                                 N00005.80N                              NA BEVERAGE                   W20120819201208250000000029.79CA
OD00143675029              CA              00046045028869Sweetner Sweet D'lite Pink -- Sugar Substitute 1 Gm Pkt                              00012000 Ct        N82054               Swtdlite                                N00005.90N                              NA BEVERAGE                   W20120819201208250000000013.33CA
OD00144675001              CA              00046045010024Sweetner Sugar Pc Packets -- Pure Cane Sugar 2.8 Grams                               00012000 Ct        N401590              Kth/Excl                                N00016.00N                              NA BEVERAGE                   W20120819201208250000000013.42CA
OD00145675030              CA030025827553  00300258275534Sweetner Equal Sugar Sub -- W/Aspartame                                              00012000 Ct        N61080               Equal                                   N00007.00N                              NA BEVERAGE                   W20120819201208250000000025.68CA
OD00146640305              CA              20672145009015Tea Green Organic                                                                    001220 Ct          N42-1000             Revolutn                                Y00006.17N                              NA BEVERAGE                   W20120819201208250000000067.37CA
OD00147640353              CA              00657272203082Tea Iced Raspbry Fltr Pouch -- 3 Gal Brew Bek Equip                                  00323 Oz           N20308               Ceylon                                  N00006.50N                              NA BEVERAGE                   W20120819201208250000000043.86CA
OD00148640207              CA              00657272203037Tea Iced Fltr Pouch 3 Gal -- 100% Ceylon Tea 3 Gal Brew                              00323 Oz           NCTG306              Ceylon                                  N00006.50N                              NA BEVERAGE                   W20120819201208250000000028.85CA
OD00149630036              CA              00068274345425Water Drinking Purified -- Pet Plastic Bottles                                       003016.9 Oz        N11476270            Nestle                                  N00037.90N                              NA BEVERAGE                   W20120819201208250000000004.81CA
OD00150640056              CA004100000291  10041000002912Tea Bag Hot Brisk Indiv -- 1000 Cup/Cs                                               0010100 Ct         N4100000291          Lipton                                  N00008.75N                              NA BEVERAGE                   W20120819201208250000000035.65CA
OD00151640205              CA              60721450009020Tea Green Organic                                                                    000830 Ct          N40-1000             Revolutn                                N00004.00N                              NA BEVERAGE                   W20120819201208250000000067.37CA
OD00152640282              CA              00046045026186Coffee 100% Colombian Fp -- 64 Pots/Cs Filter Pack                                   00642 Oz           N18423               Elgtncof                                N00009.00N                              NA BEVERAGE                   W20120819201208250000000062.74CA
OD00153620102              CA              10053500003672Juice Grapefruit White 100% -- Unsweetened                                           00485.5 Oz         N5002034060          Bluebird                                N00024.50N                              NA BEVERAGE                   W20120819201208250000000018.54CA
OD00154878300              CA              20083491003211Label Disolvable Monday -- 1.5X1                                                     0001Roll           NIT1100321           Daymark                                 N00000.22N                              DISPOSABLE                    W20120819201208250000000006.79CA
OD00155878304              CA              20083491003228Label Disolvable Tuesday -- 1.5X1                                                    0001Roll           NIT1100322           Daymark                                 N00000.22N                              DISPOSABLE                    W20120819201208250000000006.79CA
OD00156878305              CA              10083491003238Label Disolvable Wednesday -- 1.5X1                                                  0001Roll           NIT1100323           Daymark                                 N00000.22N                              DISPOSABLE                    W20120819201208250000000006.79CA
OD00157878303              CA              20083491003242Label Disolvable Thursday -- 1.5X1                                                   0001Roll           NIT1100324           Daymark                                 N00000.22N                              DISPOSABLE                    W20120819201208250000000006.79CA
OD00158878299              CA              20083491003259Label Disolvable 1.5X1 Friday                                                        0001Roll           NIT1100325           Daymark                                 N00000.22N                              DISPOSABLE                    W20120819201208250000000006.79CA
OD00159878301              CA              20083491003266Label Disolvable Saturday -- 1.5X1                                                   0001Roll           NIT1100326           Daymark                                 N00000.22N                              DISPOSABLE                    W20120819201208250000000006.79CA
OD00160878302              CA              20083491003273Label Disolvable Sunday -- 1.5X1                                                     0001Roll           NIT1100327           Daymark                                 N00000.22N                              DISPOSABLE                    W20120819201208250000000006.79CA
OD00161891040              CA              00928187820238Glove Cut Resistant Lg -- Replacement For Item 883890                                0001Ea             N82023               Dexter                                  N00000.25N                              DISPOSABLE                    W20120819201208250000000012.74CA
OD00162891041              CA              00921878201378Glove Cut Resistant Med -- Knife Handler                                             0001Ea             N82013               Dexter                                  N00000.25N                              DISPOSABLE                    W20120819201208250000000012.74CA
OD00163882037              CA              10073310165605Toilet Tissue 2 Ply Ultra Whit -- 4.5X4.05 Prem Embossed                             000160 Roll        N16560               Angelsof                                N00027.15N                              DISPOSABLE                    M20120801201208310000000033.58CA
OD00164880035              CA              10073310314362Napkin Din 2Ply 1/8 Fold White -- Replacement For Item 880190                        0030100 Ct         N31436               Preferen                                N00033.64N                              DISPOSABLE                    M20120801201208310000000035.43CA
OD00165875215              CA              20078731600473Paper Wax Tissue 6X10.75 In -- Replacement For Item 875131                           0012500 Ct         NRW66                Ritewrap                                N00016.00N                              DISPOSABLE                    W20120819201208250000000026.42CA
OD00166875129              EA              10078731703672Paper Sand Wrap 12 X 12 -- White Dry Waxed 1 Side                                    00051000 Ct        NFS1212W             Dixie                                   N00007.64N                              DISPOSABLE                    M20120801201208310000000012.72EA
OD00167888077              CA              10051098005849Scrubber Stainless Steel Lrg -- Large 1.25 Oz Scrubber                               000112 Ct          ND204/12             Kth/Essn                                N00001.25N                              DISPOSABLE                    W20120819201208250000000011.86CA
OD00168888026              CA              00063637650055Pad Stainless Steel Scourer                                                          000624 Ct          N150050              Asa                                     Y00018.70N                              DISPOSABLE                    W20120819201208250000000047.61CA
OD00169873006              CA              10046045022185Straw 7.75In Jumbo Clear -- Paper Wrapped                                            0004500 Ct         NBE7LW-0222          Kth/Essn                                N00004.00N                              DISPOSABLE                    W20120819201208250000000017.51CA
OD00170884061              EA              10051098003203Toothpick Frill 3 Inch                                                               00101000 Ct        NRF                  Disco                                   N00000.48N                              DISPOSABLE                    W20120819201208250000000002.54EA
OD00171884041              CA              01737557100417Toothpick Plain Cello Indiv Wr -- 12/1000                                            00121000 Ct        N1004-1/407          Goldmax                                 N00006.00N                              DISPOSABLE                    W20120819201208250000000018.58CA
OD00172877020              CA              10027901090166Film 18X2000 Clear Wrap -- Metal Cutter Blade U                                      0001Roll           N9016                Kth/Essn                                N00010.15N                              DISPOSABLE                    W20120819201208250000000015.80CA
OD00173875463              CA              10738101797754Bag Portion Random Friday -- 8.5X8.5                                                 00012000 Ct        N303679775           Valugard                                N00007.50N                              DISPOSABLE                    W20120819201208250000000039.09CA
OD00174875467              CA              10738101797716Bag Portion Random Monday -- Replacement For Item 875450                             00012000 Ct        N303679771           Valugard                                N00007.02N                              DISPOSABLE                    W20120819201208250000000039.09CA
OD00175875462              CA              10738101797761Bag Portion Random Saturday -- Replacement For Item 875458                           00012000 Ct        N303679776           Valugard                                N00007.50N                              DISPOSABLE                    W20120819201208250000000039.09CA
OD00176875461              CA              10738101797778Bag Portion Random Sunday -- Replacement For Item 875449                             00012000 Ct        N303679777           Valugard                                N00007.50N                              DISPOSABLE                    W20120819201208250000000039.09CA
OD00177875464              CA              10738101797747Bag Portion Random Thursday -- Replacement For Item 875456                           00012000 Ct        N303679774           Valugard                                N00007.50N                              DISPOSABLE                    W20120819201208250000000039.09CA
OD00178875466              CA              10738101797723Bag Portion Random Tuesday -- Replacement For Item 875451                            00012000 Ct        N303679772           Valugard                                N00007.50N                              DISPOSABLE                    W20120819201208250000000039.09CA
OD00179875465              CA              10738101797730Bag Portion Random Wednesday -- Replacement For Item 875452                          00012000 Ct        N303679773           Valugard                                N00007.50N                              DISPOSABLE                    W20120819201208250000000039.09CA
OD00180883819              CA              10738101630235Glove Latex Large Pf -- To Be Replaced By Item 883797                                0004100 Ct         N304763023           Handgard                                N00005.79Y883797                        DISPOSABLE                    W20120819201208250000000038.48CA
OD00181884100              CA                            Chopsticks Red Envelope -- Bamboo 2 Per Envelope                                     1000Pair           N884100              Perfect                                 N00015.90N                              DISPOSABLE                    W20120819201208250000000000.00CA
OD00182883823              CA              10738101630242Glove Latex X-Large P.F. -- Powder Free                                              0004100 Ct         N304763024           Handgard                                N00006.24N                              DISPOSABLE                    W20120819201208250000000038.48CA
OD00183880108              CA              00653983771407Napkin Band Red 1.5X4 In -- Standard Size                                            00082500 Ct        NN9S299              Evergrn                                 N00017.00N                              DISPOSABLE                    W20120819201208250000000058.47CA
OD00184880085              CA              10073310960194Napkin Bev 1 Ply White 9.5X9.5                                                       0008500 Ct         N96019               Bevnap                                  N00011.06N                              DISPOSABLE                    M20120801201208310000000014.11CA
OD00185880198              CA              10073310921126Napkin Dinner 16X15 Premium Wh -- Replacement For Item 880315                        00011000 Ct        N92112               Essence                                 N00019.94N                              DISPOSABLE                    M20120801201208310000000036.37CA
OD00186888074              CA              10051098005153Pad Scouring Nylon 6X9In -- Medium Duty Green                                        000120 Ct          NMD69/20             Kth/Essn                                N00001.45N                              DISPOSABLE                    W20120819201208250000000005.71CA
OD00187890935              CA              00182910732391Tape Register Roll Thermal -- 3 1/8 X 200 Ft                                         000130 Ct          N7313SP              National                                N00034.00N                              DISPOSABLE                    W20120819201208250000000038.75CA
OD00188882053              CA              10073310193752Toilet Tissue Compact Coreless -- 3.85X4.05 Sht-Disp 882043                          00361000 Ct        N19375               Compact                                 N00027.54N                              DISPOSABLE                    M20120801201208310000000040.59CA
OD00189872532              CA              20614249338110Box Biopak #1 Earth -- 5 X 4.5 X 2.5                                                 0001450 Ct         N01BPEARTH           Gsd                                     N00025.00N                              TO GO                         W20120819201208250000000070.21CA
OD00190872514              CA              20614249338219Box Biopak #2 Earth -- 8.5 X 6.25 X 1 7/8 In                                         0001200 Ct         N02BPEARTH           Gsd                                     N00020.00N                              TO GO                         W20120819201208250000000044.42CA
OD00191872395              CA              10614249248313Box Bio-Pak #3 Wht Squat -- Replacement For Item 900567                              000450 Ct          N03BPWHITEM          Bio Pak                                 N00021.00N                              TO GO                         W20120819201208250000000058.66CA
OD00192872520              CA              10614249248115Box Bio-Pak #1 White -- 5X4.5X2.5                                                    000850 Ct          N01BPWHITEM          Bio Pak                                 N00025.00N                              TO GO                         W20120819201208250000000058.77CA
OD00193872509              CA              10614249248214Box Bio-Pak #2 White Squat -- Food Container No Handle                               0001200 Ct         N02BPWHITEM          Bio Pak                                 N00020.00N                              TO GO                         W20120819201208250000000043.39CA
OD00194819165              CA                            Cont Plas 12Oz Soup -- Lid Is 819163 Trans Pp                                        0001500 Ct         N523258              Berry                                   N00020.00N                              TO GO                         M20120801201208310000000046.39CA
OD00195819143              CA              00696599421274Cont Plas 32Oz Delipk W/Lid                                                          001024 Ct          NYSD2532             Pactiv                                  N00027.97N                              TO GO                         W20120819201208250000000046.89CA
OD00196870017              CA              10041594200879Cont 6 Oz Foam Squat 6Sj12 -- Lid Is 860042 & 860045                                 002050 Ct          N6SJ12               Dart                                    N00005.65N                              TO GO                         W20120819201208250000000022.26CA
OD00197901625              CA                            Cup Plas 12 Oz Clr Mama Fu                                                           002050 Cnt         N12P-MAMAFU          Conex                                   N00022.30N                              TO GO                         W20120819201208250000000065.16CA
OD00198902732              CA                            Cup Plastic 20 Oz-Mama Fu -- To Be Replaced By Item 901626                           001250 Ct          N20CT-MAMA           Mama Fu                                 N00029.40Y901626                        TO GO                         W20120819201208250000000099.92CA
OD00199901626              CA                            Cup Plas 24 Oz Clr Mama Fu -- Replacement For Item 902732                            001250 Cnt         N24P-MAMAFU          Conex                                   N00022.30N                              TO GO                         W20120819201208250000000060.53CA
OD00200819002              CA              00415942629002Lid Plas Clear Slotted -- Fits 16Ct,20Ct,24Ct Classic                                00011000           NL24C                Dart                                    N00007.90N                              TO GO                         W20120819201208250000000029.36CA
OD00201815812              CA              00046045021044Lid Plas 2Oz Clear -- Fits 815807,818809,815802                                      0025100 Ct         NBEK2-0090           Kth/Essn                                N00008.00N                              TO GO                         W20120819201208250000000035.08CA
OD00202814102              CA              00041594500125Cup Plas 16Oz Trans -- Conex Lid # 812015                                            002050 Ct          N16K                 Dart                                    N00025.15N                              TO GO                         W20120819201208250000000044.66CA
OD00203860042              CA              00041594200148Lid Plas 12Jl Vent Wht -- Fits 12 Oz Cup                                             0010100 Ct         N12JL                Dart                                    N00004.65N                              TO GO                         W20120819201208250000000011.73CA
OD00204815328              CA              00041165121162Cup Plas Souffle 2Oz Blk -- Lid Is 815812                                            0010250 Ct         NB200EN0001          Solo                                    N00011.50N                              TO GO                         W20120819201208250000000029.31CA
OD00205871328              CA              00010618200136Meal Kit K,F,S S&P Nap -- Black Heavy Weight                                         0001250 Ct         N42H-B4              Max Pkg                                 N00009.77N                              TO GO                         W20120819201208250000000024.91CA
OD00206660752              CA              04139000278303Sauce Soy Pc                                                                         05006 Ml           N00278               Kikkoman                                N00009.50N                              TO GO                         W20120819201208250000000010.44CA
OD00207874009              CA              00079594812733Bag Paper White 8# -- 6.1X4.2X12.4                                                   0001500 Ct         N81273               Duro                                    N00014.00N                              TO GO                         W20120819201208250000000012.24CA
OD00208875395              CA              10738101851302Bag Reclosable Gallon Zip -- Zg128 Zipgard Storage Bag Gal                           0001250 Ct         N304985130           Zipgards                                N00005.25N                              TO GO                         W20120819201208250000000026.33CA
OD00209871316              CA              10618164021235Meal Kit K F S S&P Hvy Duty -- Extra Heavy Duty Black                                0001250 Ct         N42G-B4              Max Pkg                                 N00013.09N                              TO GO                         W20120819201208250000000022.40CA
OD00210872143              CA              10037700209690Tray 4 Cup Take Out 8-22 Oz -- 13X8 3/8X1.5 Hvy Duty Cen Tray                        0001250 Ct         N20969               Chinet                                  N00028.50N                              TO GO                         W20120819201208250000000048.13CA
OD00211874052              CA              00297160019090Bag Plas T-Shirt Thk-U 12X7X23 -- White                                              00011000 Ct        N12X7X23             Contpoly                                N00013.04N                              TO GO                         W20120819201208250000000023.44CA
OD00212872454              CA              00041594501351Cont Plas Hngd 1-C -- 9X7 7/8X2.75In                                                 0002125 Ct         NC90PST1             Dart                                    N00019.90N                              TO GO                         W20120819201208250000000039.73CA
OD00213279938              CA                            Lid For Milk Jug -- To Be Replaced By Item 901068                                    000148 Ct          N700061009           Packer                                  N00000.01Y901068                        TO GO                         W20120819201208250000000001.58CA
OD00214885021              CA              00763501257600Degreaser Inside Out Purple Bx -- Inc:Bottle/Spray/Cup/Msds                          000112 Ltr         NS25760-B            Cleanmat                                N00029.80N                              CHEMICAL & SUPPLY             W20120819201208250000000033.97CA
OD00215885622              CA              00046045023598Soap Hand Foam Antibacterial -- Use Disp #885603 Or 885598                           00041000 Ml        NK885622             Kth/Essn                                N00010.00N                              CHEMICAL & SUPPLY             W20120819201208250000000052.88CA
OD00216900068              CA              10025469297775Degreaser Greasetrip Plus                                                            000632 Oz          N29777               Ecolab                                  N00015.10N                              CHEMICAL & SUPPLY             W20120819201208250000000090.86CA
OD00217890035              CA              00046045013544Sprayer & Bottle                                                                     00014 Ct           NBTS0001P            Kth/Essn                                N00000.65N                              CHEMICAL & SUPPLY             W20120819201208250000000010.83CA
OD00218900369              CA              00025469151728Drying Agent Et Ultra Dry                                                            00014.5 Gal        N15172               Ecolab                                  N00042.00N                              CHEMICAL & SUPPLY             M20120801201208310000000124.05CA
OD00219817664              CA002790104990  10027901049904Lid Alum Full Size -- Fits 817661 817657                                             000150 Ct          NRL990               Reynolds                                N00008.60N                              CATERING                      W20120819201208250000000032.14CA
OD00220817639              CA002790111150  10027901111502Pan Alum Steamtable 1/2 -- 12.75X10 3/8X2 19/32 817663                               0001100 Ct         NRC1150              Reynolds                                N00012.30N                              CATERING                      W20120819201208250000000039.13CA
OD00221817647              CA              00016194063639Lid Alum Steamtable 1/2 -- Fits 817505 & 817526                                      0001100 Ct         NY101230             Pactiv                                  N00004.87N                              CATERING                      W20120819201208250000000015.68CA
OD00222817661              CA002790111174  10027901111748Pan Alum Steamtable Full -- 20.75X12 13/16X3 3/8 Lid817664                           000150 Ct          NRC1174              Reynolds                                N00015.88N                              CATERING                      W20120819201208250000000048.77CA
OD00223817511              CA              00016194048216Pan Alum Steamtable Full -- 3-3/8 Dp Lid 817648 60 Gauge                             000140 Ct          NY6050XH             Pactiv                                  N00013.32N                              CATERING                      W20120819201208250000000029.86CA
OD00224817648              CA              00016194048148Lid Alum Full Size -- Fits #817511 & #817649                                         000180 Ct          NY112045             Pactiv                                  N00011.52N                              CATERING                      W20120819201208250000000028.37CA
OD00225918803              CA              00039982000807Tong Plas Blk 10 In -- Disposable                                                    000136 Ct          NUBK36T              Sabert                                  N00004.90N                              CATERING                      W20120819201208250000000046.80CA
OD00226871033              CA              50738780107941Cutlery Teaspoon Black -- Heavy Weight Recycled Bulk Pk                              00011000 Ct        NGDR7TS0004          Solo                                    N00010.50N                              CATERING                      W20120819201208250000000041.41CA
OD00227820102              CA              00016194050264Plate Foam 9In Black -- Laminated Lid # 830012                                       0004125 Ct         NYTXB0009            Pactiv                                  N00010.08N                              CATERING                      W20120819201208250000000035.64CA
OD00228820039              CA              50738780452065Plate Foam 6In Blk Hvy -- Lid Is 820041                                              0008125 Ct         NSR6BP-0004          Solo                                    N00011.40N                              CATERING                      M20120801201208310000000070.88CA
OD00229890301              CA              00046045016842Fuel Methanol Handy Fuel -- Burn Time 2 Hrs Gel                                      000172Ct           NHF03008BK           Kth/Essn                                N00038.35N                              CATERING                      W20120819201208250000000032.94CA
OD00230887082              CA              10025469168709Presoak Silver Fusion -- To Be Replaced By Item 900030                               00034 Lb           N16870               Ecolab                                  N00012.58Y900030                        CATERING                      W20120819201208250000000096.81CA
OD00231819016              CA              00822506500507Jug Milk Gallon Plastic -- Trans Lid Is 279938                                       00481 Gal          N05760067            Borden                                  N00004.00N                              CATERING                      W20120819201208250000000021.73CA
OD00232901068              CA                            Lid For Gallon/Quart Jug -- Replacement For Item 279938                              00481 Each         N901068              Cks                                     N00000.75N                              CATERING                      W20120819201208250000000001.58CA
OD00233871175              CA              00039982907298Spoon Plas Serving Blk -- 10 In Disposable                                           000172 Ct          NUBK72S              Sabert                                  N00002.90N                              CATERING                      W20120819201208250000000026.19CA
OD00234817526              CA              00016194050899Pan Alum Steamtable 1/2 -- 2-9/16 Dp Lid 817647 60 Gauge                             000250 Ct          NY6132XH             Pactiv                                  N00010.95N                              CATERING                      W20120819201208250000000027.91CA
OD00235884016              CA              10051098005306Stirrer 5.5In Sipstick -- Replacement For Item 884006                                00101000 Ct        NSS5                 Disco                                   N00004.00N                              BAR FOOD & SUPPLIES           W20120819201208250000000016.27CA
OD00236874089              CA              00602734116509Bag T-Shirt Plas Thank You                                                           00011000 Ct        NDF110621TY          Panpacif                                N00011.70N                              BAR FOOD & SUPPLIES           W20120819201208250000000014.04CA
OD00237994805              CA                            Tea Green Filter Bag -- Special Order Item / Grocery                                 001020 Ct          NPER DENISE          Giant Un                                N00013.00N                              BAR FOOD & SUPPLIES           M20120801201208310000000032.63CA
FFOGLD
