HCFDF35015620140214100868                     15221623   950001
D9958020000100500005C0000005.95Y               00027.80
D9958030000200400004C0000013.49Y               00019.50
D9958020000300500005C0000005.95Y               00027.80
D9958030000400400004C0000013.49Y               00019.50
D9958020000500500005C0000005.95Y               00027.80
D9958030000600400004C0000013.49Y               00019.50
HCFDF73624720141105E&S                        15556038  Y000000
D9183760000100200002C0000037.75                00000.00
D9189470000200600006C0000006.59                00000.00
D9150200000300600006C0000019.80                00000.00
D9154690000400600006C0000045.53                00000.00
D9181200000500500005C0000017.34                00000.00
D9189470000600100001C0000006.59                00000.00
D9182370000701500015C0000004.61                00000.00
D9182590000801500015C0000001.80                00000.00
D9185740000900200002C0000000.91                00000.00
D9185750001001600016C0000003.47                00000.00
D9185950001100400004C0000012.14                00000.00
D9202240001200100001C0000114.05                00000.00
D9207000001301500015C0000009.36                00000.00
D9281690001400300003C0000053.86                00000.00
D9105700001500800008C0000004.57                00000.00
D9184250001600400004C0000006.64                00000.00
D9187840001702500025C0000001.20                00000.00
D9233620001800200002C0000033.97                00000.00
D9187390001900200002C0000020.24                00000.00
D9187110002001000010C0000003.96                00000.00
D9187140002100500005C0000007.10                00000.00
D9187210002200200002C0000011.11                00000.00
D9187380002300300003C0000007.10                00000.00
D9187100002400500005C0000003.58                00000.00
D9187230002500500005C0000004.05                00000.00
D9181340002600300003C0000001.76                00000.00
D8908960002700100001C0000070.91                00000.00
D9131500002800100001C0000025.25                00000.00
D9235720002902500025C0000006.03                00000.00
D9235730003001500015C0000004.61                00000.00
D9180700003100100001C0000106.78                00000.00
D6404250003200100001C0000017.50                00000.00
D6404260003300100001C0000017.50                00000.00
D1069160003400800008C0000032.45                00000.00
D9137500003500400004C0000008.39                00000.00
D9180800003600200002C0000003.63                00000.00
D9183980003700500005C0000003.56                00000.00
D9186890003800200002C0000018.87                00000.00
D9187040003900200002C0000002.32                00000.00
D9238190004000400004C0000024.77                00000.00
D9089150004100200000C0000051.43              O 00000.00
D9184550004200100001C0000015.85                00000.00
D1090830004300100001C0000002.68        918586R 00000.00
D9186720004400200002C0000005.03                00000.00
D9238180004500400004C0000021.15                00000.00
D9089160004600200002C0000150.99                00000.00
D8913190004700400004C0000003.40                00000.00
D9150060004800400004C0000080.30                00000.00
D9184700004900300003C0000051.40                00000.00
D9184800005000200002C0000051.40                00000.00
D9184880005100100001C0000006.53                00000.00
D9181410005200400004C0000001.13                00000.00
D9184430005300100001C0000088.44                00000.00
D9184890005400100001C0000042.91                00000.00
D9157830005500200002C0000167.61                00000.00
D1057710005600300003C0000050.60                00000.00
D9180070005700200002C0000078.11                00000.00
D9185710005800300003C0000012.64                00000.00
D9181100005900300003C0000024.46                00000.00
D9182460006002000020C0000038.67                00000.00
D9182660006102000020C0000021.37                00000.00
D1066190006201000010C0000028.17                00000.00
D9182520006301000010C0000012.23                00000.00
D9182950006400200002C0000010.75                00000.00
D9184000006500400004C0000008.87                00000.00
D8913500006600400004C0000012.60                00000.00
D9182490006702000020C0000015.57                00000.00
D9182670006802000020C0000007.78                00000.00
D9182770006901500015C0000002.22                00000.00
D9182780007004500045C0000003.33                00000.00
D9207280007101000010C0000033.32                00000.00
D9182830007206000060C0000001.85                00000.00
D9184050007300400004C0000012.08                00000.00
D9184100007400400004C0000013.11                00000.00
D9184950007502000020C0000002.95                00000.00
D9185500007600100001C0000008.48                00000.00
D9136090007700100001C0000021.38                00000.00
D9136000007800600006C0000014.93                00000.00
D9137000007900100001C0000014.36                00000.00
D9184240008000800008C0000007.76                00000.00
D9186850008100200002C0000014.44                00000.00
D9286770008200200002C0000009.64                00000.00
D9288990008300200002C0000011.31                00000.00
D9134700008400800008C0000010.41                00000.00
D9180550008500500005C0000008.37                00000.00
D9181510008600600006C0000014.65                00000.00
D9181500008700600006C0000021.78                00000.00
D9188500008800600006C0000012.09                00000.00
D9181960008900600006C0000007.43                00000.00
D9182080009000200002C0000016.53                00000.00
D9186300009100800008C0000006.79                00000.00
D9187500009200800008C0000001.94                00000.00
D9306890009300100001C0000098.84                00000.00
D9303650009400100001C0000041.68                00000.00
D9300520009500100001C0000062.37                00000.00
D9306450009600300003C0000057.86                00000.00
D9307780009700100001C0000097.65                00000.00
D9181130009801600016C0000036.19                00000.00
D1008790009906000060C0000004.95                00000.00
D9204500010000400004C0000007.19                00000.00
D9204600010100200002C0000007.54                00000.00
D9187580010200400004C0000005.87                00000.00
D9189100010300300003C0000006.99                00000.00
D9207140010400400004C0000037.49                00000.00
D9235850010500400004C0000012.53                00000.00
D9236140010600400004C0000009.50                00000.00
D9236550010701500015C0000009.80                00000.00
D9236650010801500015C0000015.05                00000.00
D9236700010901500015C0000020.94                00000.00
D9236900011002000020C0000010.69                00000.00
D9181050011100400004C0000091.73                00000.00
D1054700011202000020C0000009.26                00000.00
D9181820011301500015C0000007.43                00000.00
D9182000011400400004C0000017.18                00000.00
D9183400011500600006C0000002.04                00000.00
D9183550011600100001C0000002.43                00000.00
D9183730011701200012C0000002.04                00000.00
D9184180011800200002C0000005.90                00000.00
D9183320011901200012C0000001.18                00000.00
D9189200012000600006C0000008.27                00000.00
D9230500012101000010C0000003.62                00000.00
D9232550012200800008C0000007.82                00000.00
D1054710012300300003C0000181.17                00000.00
D9233010012400300003C0000031.64                00000.00
D9234850012500200002C0000011.09                00000.00
D9235140012600500005C0000026.53                00000.00
D9236000012700400004C0000016.93                00000.00
D9236100012800400004C0000033.86                00000.00
D9237050012906000060C0000014.01                00000.00
D9237100013007500075C0000020.10                00000.00
D9237300013107500075C0000010.23                00000.00
D9236050013201200012C0000022.67                00000.00
D9237550013306000060C0000012.63                00000.00
D9237750013407500075C0000010.45                00000.00
D9284060013500400004C0000012.97                00000.00
D9284160013600800008C0000019.77                00000.00
D9284290013700500005C0000023.13                00000.00
D9291160013800600006C0000046.79                00000.00
D9291520013900200002C0000054.82                00000.00
D9291530014000700007C0000060.38                00000.00
D9291540014100500005C0000081.88                00000.00
D9291010014200300003C0000094.69                00000.00
D9290180014300300003C0000022.18                00000.00
D9290150014400500002C0000016.24              P 00000.00
D9291110014500100001C0000082.68                00000.00
D9290360014601400014C0000057.27                00000.00
D9307230014701000010C0000021.29                00000.00
D9301050014800200002C0000066.50                00000.00
D9989710014900100001C0000033.07                00000.00
HPFDF35617720140930                    681703315590389   577060
D1014360000100100001C0000071.52N               00000.00
HPFDF73465620141002                    682456115593104  Y000000
D5002710000100100000C0000007.20Y             O 00000.00
HCFDF02364020141020                           15596332   219150
D9082750000100100001C0000244.25                00000.00
HCFDF02165320141020                           15596335   207150
D9082750000100100001C0000244.25                00000.00
HPFDF73178520141005                    683582115598070   000000
D1550620000100100001C0000011.86N               00000.00
D1650410000200100001C0000011.41N               00000.00
HCFDF71916220141006135276                     15600526   950001
D9920180000100100001C0000027.11Y               00000.00
HPFDF72164720141007                    684522415601306   542120
D4121310000100100001C0000069.77N               00000.00
D4141460000200200002C0000072.86N               00000.00
D4144960000300200002C0000042.89N               00000.00
D4834010000400100001C0000068.78N               00000.00
D6303210000500800008C0000007.65N               00000.00
HPFDF72086620141008                    684822815602673  Y000000
D5090580000100200000C0000005.75Y             O 00000.00
D5090780000200200002C0000005.75Y               00000.00
HCFDF02924820141226                           15603202   282110
D4900270000114900149C0000031.29                00000.00
HPFDF72174320141009                    685429115604975   230010
D5062050000100300003C0000003.07Y               00000.00
HTFDF71019220141020                    148861015614829 Y 152090
D0230050000100200002C0000037.57N              Y00000.00
D1047310000200200002C0000012.33N               00000.00
D6770520000300100001C0000039.97N               00000.00
HTFDF73706820141020                    148875615615008 Y 336000
D0010070000100100001C0000032.09N              Y00000.00
D1069830000200100001C0000020.39N              Y00000.00
D1044460000300100001C0000007.09N              Y00000.00
D1081910000400200002C0000009.07N              Y00000.00
D0271200000500100001C0000031.69N              Y00000.00
D1700020000600100001C0000016.48N              Y00000.00
D1230680000700100001C0000011.27N              Y00000.00
D1270330000800500005C0000021.57N              Y00000.00
D2052040000900300003C0000020.05N              Y00000.00
HTFDF70933320141018PO 14627 Chef Matt  148911815615276   823010
D1083270000100800008C0000029.84N               00000.00
D1044640000200700007C0000024.22N               00000.00
HCFDF71185420141015                           15615396   000000
D5008040000100600006C0000011.00Y               00000.00
D5444130000201000010C0000005.50Y               00000.00
HTFDF73707120141020                    148951815615576 YY336000
D1069830000100100000C0000020.39N             O 00000.00
D1044460000200100001C0000007.09N              Y00000.00
D1081910000300100001C0000009.07N              Y00000.00
D0457010000400100000C0000031.86N             O 00000.00
D0281000000500100001C0000015.70N              Y00000.00
D1240580000600100001C0000020.12N              Y00000.00
D1054200000700100001C0000027.85N              Y00000.00
D1230680000800100001C0000011.27N              Y00000.00
D1260750000900100001C0000019.01N              Y00000.00
D2050130001000100001C0000023.55N              Y00000.00
D1050680001100100001C0000012.57N              Y00000.00
D0800910001200100001C0000021.70N              Y00000.00
HTFDF02509320141018SATURDAY DELIVERY   148957815615642  Y211010
D0571020000100100001C0000027.56N               00000.00
D6309530000200100001C0000023.60N               00000.00
D0260050000300800008C0000026.02N               00000.00
D0230050000400100001C0000038.64N               00000.00
D3985540000500100001C0000036.13N               00000.00
D3985650000600100001C0000033.78N               00000.00
D3890290000700100001C0000047.89N               00000.00
D8904230000800200002C0000037.10N               00000.00
D7600170000900100001C0000042.97N               00000.00
D8004550001000100001C0000078.65N               00000.00
D8230020001100100001C0000014.71N               00000.00
D4190620001200100001C0000027.24N               00000.00
D4128670001300100001C0000042.63N               00000.00
D2500070001400100001C0000023.47N               00000.00
D1042230001500200002C0000016.48N               00000.00
D1120400001600100001C0000034.09N               00000.00
D8770460001700100001C0000021.16N               00000.00
D4510180001800100001C0000076.15N               00000.00
D1041960001900100001C0000037.63N               00000.00
D2839320002000100001C0000015.86N               00000.00
D7930680002100100001P0000033.98N               00000.00
D0370090002200500005C0000014.77N               00000.00
D2879610002300100001C0000050.38N               00000.00
D2879930002400100001C0000039.89N               00000.00
D0290130002500200002C0000007.61N               00000.00
D7791410002600100001C0000036.16N               00000.00
D7791780002700200002C0000022.85N               00000.00
D7793120002800100001C0000080.77N               00000.00
D1550100002900200002C0000016.53N               00000.00
D1650550003000100000C0000022.16N             O 00000.00
D6800850003100100001C0000031.33N               00000.00
D5322790003200100001C0000003.54Y               00000.00
D1700010003300200002C0000014.94N               00000.00
D6541250003400100001C0000019.16N               00000.00
D6542070003500100001C0000067.91N               00000.00
D5401490003600200002C0000016.60N               00000.00
D4673650003700400004C0000067.03N               00000.00
D4673950003800400004C0000097.85N               00000.00
D6992500003900100001C0000023.11N               00000.00
D6308210004000200002C0000008.79N               00000.00
D6308190004100200002C0000008.79N               00000.00
D7800020004200200002C0000014.07N               00000.00
D4180010004300200002C0000042.84N               00000.00
D1050800004400200002C0000015.06N               00000.00
D1050830004500200001C0000015.06N             P 00000.00
D1050860004600200000C0000015.06N             O 00000.00
D7957620004700100001C0000034.95N               00000.00
D7832710004800200002P0000012.19N               00000.00
D0720040004900200002C0000032.50N               00000.00
D3988470005000100001C0000021.70N               00000.00
D1069830005100100000C0000019.89N             O 00000.00
D4837620005200100001C0000029.77N               00000.00
D6500710005300100001C0000044.19N               00000.00
D6501040005400100001C0000024.08N               00000.00
D3947760005500100001C0000041.44N               00000.00
D3943340005600100001C0000030.40N               00000.00
D3940530005700100001C0000027.15N               00000.00
D7991510005800100001C0000014.69N               00000.00
D7420130005900100001C0000051.25N               00000.00
D7590010006000100001C0000035.33N               00000.00
D7622120006100100001C0000038.34N               00000.00
D7900180006200200002P0000009.09N               00000.00
D6504800006300100001C0000023.62N               00000.00
D1044010006400100001C0000021.19N               00000.00
D3986330006500100001C0000018.21N               00000.00
D4125100006600100001C0000024.85N               00000.00
D4125400006700100001C0000024.85N               00000.00
D6880080006800100001C0000015.32N               00000.00
D2851130006900100001C0000022.40N               00000.00
D2832490007000200002C0000013.44N               00000.00
D7994240007100100001C0000027.76N               00000.00
D1040050007200100001C0000013.41N               00000.00
D1190010007300200002C0000023.30N               00000.00
D1261150007400600006C0000021.65N               00000.00
D4422130007500200002C0000129.36N               00000.00
D6911880007600100001C0000031.52N               00000.00
D4075300007700100001C0000017.78N               00000.00
D1402700007800300003C0000016.02N               00000.00
D6820040007900100001P0000018.92N               00000.00
D6822240008000100001P0000015.64N               00000.00
D1072700008100200002C0000031.59N       107271R 00000.00
D6001150008200300003P0000006.39N               00000.00
D1650450008300100001C0000047.73N               00000.00
D1024580008400100001C0000015.45N               00000.00
D0620500008500300003C0000025.28N               00000.00
D3610820008600100001C0000030.96N               00000.00
D8000580008700100001C0000060.00N               00000.00
D7010540008800100001C0000044.41N               00000.00
D5412150008900200002C0000027.74N               00000.00
D6307520009000100000C0000014.10N             O 00000.00
D6307540009100200000C0000014.10N             O 00000.00
D6307560009200100000C0000014.10N             O 00000.00
D6308240009300100001C0000008.79N               00000.00
D6308300009400100001C0000008.79N               00000.00
D7003280009500100001C0000017.76N               00000.00
D0951200009600200002C0000020.17N               00000.00
D0950200009700100001C0000017.05N               00000.00
D0952220009800100000C0000013.07N             O 00000.00
D1050810009900100001C0000040.28N               00000.00
D2102510010000100001C0000016.88N               00000.00
D2100400010100300003C0000021.88N               00000.00
D2101170010200200002C0000020.40N               00000.00
D6504520010300100001C0000019.23N               00000.00
D1050060010400100001C0000024.72N               00000.00
D1060910010500100001C0000029.38N               00000.00
D1050080010600300003C0000028.18N               00000.00
D1050480010700200002C0000015.06N               00000.00
D1051100010800200000C0000034.66N             O 00000.00
D1097070010900100000C0000022.56N             O 00000.00
D6860130011000100001C0000032.42N               00000.00
D6300100011100100001C0000015.38N               00000.00
D6300110011200100001C0000013.74N               00000.00
D9232920011300800008C0000015.02N               00000.00
HTFDF70933320141018PO 14641 HR         148959915615664   823010
D0090620000100800008C0000032.73N               00000.00
D1069820000201000010C0000017.65N               00000.00
D1015590000300800008C0000036.90N               00000.00
D7717920000400800008C0000017.66N               00000.00
D7727910000501000010C0000041.63N               00000.00
D1029510000601400014C0000017.91N               00000.00
D1042490000701400014C0000014.67N               00000.00
D4071650000800800008C0000017.62N               00000.00
D4071730000900800008C0000017.62N               00000.00
HTFDF02509320141021TUESDAY DELIVERY    148961415615675 YY219010
D0571020000100200002C0000030.11N              Y00000.00
D5303160000200200002C0000079.78N               00000.00
D5014650000300100001C0000005.17Y               00000.00
D6501400000400100001C0000028.57N               00000.00
D0260050000500300003C0000026.02N              Y00000.00
D0230050000600100001C0000038.64N              Y00000.00
D3948130000700100001C0000029.02N               00000.00
D3890290000800100001C0000047.89N               00000.00
D8904230000900200002C0000037.10N               00000.00
D6610200001000100001C0000031.93N               00000.00
D7400900001100100001C0000002.71Y               00000.00
D7400210001200100001C0000033.18N               00000.00
D7500550001300100001C0000041.39N               00000.00
D7621240001400200002P0000005.13N               00000.00
D4123160001500100001C0000041.65N               00000.00
D4123180001600100001C0000041.65N               00000.00
D4122830001700100001C0000041.65N               00000.00
D6900100001800100001C0000009.11N               00000.00
D7713200001900100001C0000010.76N               00000.00
D7713890002000100001C0000025.21N               00000.00
D1078280002100100001C0000037.38N               00000.00
D7713000002200100001C0000020.08N               00000.00
D7713790002300100001C0000025.64N               00000.00
D6200400002400100001C0000019.70N               00000.00
D7710210002500100001C0000021.55N               00000.00
D4125580002600100001C0000030.26N               00000.00
D4127070002700100001C0000031.37N               00000.00
D6302280002800200002C0000004.40N               00000.00
D2500070002900200002C0000023.47N              Y00000.00
D3931250003000100001C0000029.65N               00000.00
D8770460003100300003C0000021.16N               00000.00
D4531500003200100001C0000038.49N               00000.00
D6880090003300200002C0000007.35N               00000.00
D1041960003400200002C0000037.63N               00000.00
D2900710003500200002C0000016.93N              Y00000.00
D8837960003600100001C0000029.93N               00000.00
D8837970003700100001C0000029.93N               00000.00
D8838000003800100001C0000029.93N               00000.00
D1020060003900100001C0000003.01Y               00000.00
D0370090004000200002C0000017.61N              Y00000.00
D0280750004100100001C0000024.09N              Y00000.00
D0290130004200200002C0000007.61N              Y00000.00
D7000160004300100001C0000017.36N               00000.00
D6622950004400100001C0000037.40N               00000.00
D5075270004500100001C0000057.11N               00000.00
D7950540004600100001C0000086.64N               00000.00
D6910260004700100001C0000055.30N               00000.00
D4075300004800100001C0000017.78N               00000.00
D7791360004900100001C0000029.85N 779141      S 00000.00
D7791780005000200002C0000022.85N               00000.00
D6820150005100100001P0000015.05N               00000.00
D1500150005200100001C0000008.35N              Y00000.00
D1550100005300100001C0000016.53N              Y00000.00
D7002060005400100001C0000019.96N               00000.00
D1006580005500100001C0000031.10N               00000.00
D6750350005600100001C0000012.15N               00000.00
D6750440005700100001C0000018.97N               00000.00
D7741680005800100001C0000014.24N               00000.00
D7749800005900100001C0000024.36N               00000.00
D1700010006000400004C0000014.94N              Y00000.00
D3630850006100100001C0000035.02N               00000.00
D3530350006200100001C0000026.99N               00000.00
D3634770006300100001C0000029.24N               00000.00
D6870060006400100001P0000006.03N               00000.00
D6870210006500100001P0000006.99N               00000.00
D6540400006600100001C0000021.71N               00000.00
D3984670006700200002C0000027.40N               00000.00
D5401490006800200002C0000016.60N               00000.00
D4673950006900100001C0000097.85N               00000.00
D7740800007000100001C0000010.52N               00000.00
D7744920007100200002C0000010.13N               00000.00
D7747040007200100001C0000005.04N               00000.00
D7740100007300100001C0000005.07N               00000.00
D3483000007400200002P0000002.55N               00000.00
D7800020007500200002C0000014.07N               00000.00
D7800090007600100001C0000024.16N               00000.00
D6300110007700100001C0000013.74N               00000.00
HTFDF02509320141022WEDNESDAY DELIVERY  148964315615697 Y 219010
D1029510000100100001C0000018.41N               00000.00
D0571020000200100001C0000030.11N              Y00000.00
D6309530000300100001C0000023.60N               00000.00
D8110640000400100001C0000130.18N               00000.00
D4076640000500100001C0000043.67N               00000.00
D0260050000600100001C0000026.02N              Y00000.00
D1001340000700100001C0000037.27N               00000.00
D3945300000800100001C0000026.57N               00000.00
D3948740000900100001C0000029.11N               00000.00
D3948330001000100001C0000033.37N               00000.00
D8904230001100100001C0000037.10N               00000.00
D7500550001200100001C0000041.39N               00000.00
D8230020001300200002C0000014.71N               00000.00
D7713890001400100001C0000025.21N               00000.00
D8870170001500100001C0000029.09N               00000.00
D2500070001600100001C0000023.47N              Y00000.00
D4531500001700200002C0000038.49N               00000.00
D2900710001800100001C0000016.93N              Y00000.00
D7930680001900100001P0000033.98N               00000.00
D6604050002000100001P0000012.52N               00000.00
D2877690002100100001C0000026.22N              Y00000.00
D4080740002200100001C0000024.02N               00000.00
D4086400002300100001C0000017.14N               00000.00
D1550100002400100001C0000016.53N              Y00000.00
D3435020002500200002P0000002.26N               00000.00
D1700010002600200002C0000014.94N              Y00000.00
D3580130002700100001C0000042.44N               00000.00
D0810420002800100001C0000014.20N              Y00000.00
D6540400002900100001C0000021.71N               00000.00
D3984670003000200002C0000027.40N               00000.00
D4673650003100100001C0000067.03N               00000.00
D4673950003200200002C0000097.85N               00000.00
D6992500003300100001C0000023.11N               00000.00
D7741810003400100001C0000006.91N               00000.00
D7747040003500100001C0000005.04N               00000.00
D7800020003600100001C0000014.07N               00000.00
D7800090003700100001C0000024.16N               00000.00
D7810060003800100001C0000023.73N               00000.00
D7870040003900200002C0000037.58N               00000.00
D7870150004000100001C0000036.00N               00000.00
D7870180004100200002C0000036.00N               00000.00
D7870280004200100001C0000072.03N               00000.00
D4922330004300100001C0000023.76N               00000.00
HTFDF70228620141020                    148984215615918 Y 336000
D0311120000100200002C0000031.28N              Y00000.00
D1022070000200100001C0000026.89N              Y00000.00
D1260520000300100001C0000019.37N              Y00000.00
D2050130000400200002C0000023.55N              Y00000.00
D1050680000500100001C0000012.57N              Y00000.00
D0800910000600100001C0000021.70N              Y00000.00
HCFDF02598320141018                           15615969   282060
D1096980000100300003C0000058.32                00000.00
HCFDF02306820141018                           15615978   279080
D1096980000100300003C0000058.32                00000.00
HCFDF02638920141225                           15616350   579010
D1103880000101000010C0000006.68                00000.00
HPFDF72372720141018                    688311415616532   470120
D3895400000100100001C0000033.19N               00000.00
D3940830000201000010C0000034.50N               00000.00
D7500330000300100001P0000017.68N               00000.00
HTFDF71022520141020Monday              149044915616978 Y 324030
D1081970000100100001C0000014.68N              Y00000.00
D1707500000200100001C0000025.00N              Y00000.00
D7720060000300100001C0000039.09N               00000.00
D6002630000400100001C0000039.08N               00000.00
D6500480000500100001C0000024.98N               00000.00
D6501240000600100001C0000025.99N               00000.00
D4121450000700100001C0000032.58N               00000.00
D4518720000800300003C0000033.33N               00000.00
HTFDF02454220141018                    149056415617078  Y322080
D6930670000100100001C0000050.31N               00000.00
D9041220000200100001C0000018.18N               00000.00
D8180050000300200002C0000028.68N               00000.00
D8158070000400100001C0000073.01N               00000.00
D8880700000500100001C0000037.08N       888046R 00000.00
D3530150000600300003C0000021.18N               00000.00
D8713250000700100001C0000027.89N               00000.00
D5323760000800200002C0000002.09Y               00000.00
D9138050000900100001C0000028.13N               00000.00
HPFDF73679320141017                    688532415617139  Y000000
D5062050000100700000C0000003.07Y             O 00000.00
HPFDF73554620141018                    688548315617233   188000
D5066170000100400004C0000039.21N               00000.00
HTFDF35034120141020                    149075515617250 YY014140
D2500250000100200002C0000022.59N              Y00000.00
D1069820000200100001C0000019.89N              Y00000.00
D1230680000300100001C0000010.97N              Y00000.00
D6304270000400100001C0000027.95N               00000.00
D6304240000500100001C0000027.95N               00000.00
D6604000000600100001P0000007.44N               00000.00
D6504490000700100001C0000029.86N               00000.00
D7991290000800100001C0000017.55N               00000.00
D7992040000900100001C0000027.25N               00000.00
D6540020001000100001C0000019.89N               00000.00
D6623630001100100001P0000010.00N               00000.00
D6600100001200100001P0000008.90N               00000.00
D6605480001300200002P0000007.96N               00000.00
D6604100001400100001P0000005.20N               00000.00
D7720470001500100001C0000015.74N               00000.00
D6994900001600100001C0000031.08N               00000.00
D6992030001700100001C0000031.09N               00000.00
D2850130001800400004C0000021.31N              Y00000.00
D2880930001900100001C0000016.52N              Y00000.00
D7654560002000100001C0000017.43N               00000.00
D6520200002100100001C0000040.15N               00000.00
D2900210002200300003C0000013.46N              Y00000.00
D2901420002300100001C0000012.94N              Y00000.00
D2903510002400100001C0000015.32N              Y00000.00
D4929920002500100001C0000034.79N               00000.00
D4875970002600100001C0000034.09N               00000.00
D4920440002700100001C0000026.82N               00000.00
D4128720002800100001C0000028.57N               00000.00
D1040670002900200002C0000011.69N               00000.00
D5065970003000100001C0000075.21N               00000.00
D5102250003100100001C0000034.54N               00000.00
D5462630003200100001C0000079.31N               00000.00
D3854240003300100001C0000021.69N               00000.00
D3252050003400100001C0000015.83N               00000.00
D3491350003500100001C0000018.82N               00000.00
D3352090003600100000C0000017.77N             O 00000.00
D3343550003700100001C0000018.51N               00000.00
D7940060003800100001P0000011.38N               00000.00
D9418040003900500005C0000006.92N               00000.00
D6880090004000200002C0000009.94N               00000.00
D7401240004100100001C0000041.88N               00000.00
D7350510004200100001C0000038.69N               00000.00
D7420130004300100001P0000010.59N               00000.00
D7800150004400100001C0000020.42N               00000.00
D7800070004500100001C0000039.36N               00000.00
D6760250004600100001C0000004.48N               00000.00
D8850250004700100001C0000029.21N               00000.00
D7791230004800100001C0000038.15N               00000.00
D8110180004900400004P0000002.52N               00000.00
D7742920005000100001C0000010.61N               00000.00
D7930410005100200002P0000007.74N               00000.00
D3352080005200100001C0000017.33N               00000.00
HTFDF73707020141020                    149080615617273 Y 336000
D0271200000100100001C0000031.69N              Y00000.00
D0010640000200100001C0000033.26N              Y00000.00
D1260520000300200002C0000019.37N              Y00000.00
D1050680000400100001C0000012.57N              Y00000.00
D1550590000500100001C0000021.05N              Y00000.00
D1081910000600200002C0000009.07N              Y00000.00
D3362150000700100001C0000023.23N               00000.00
D0311120000800100001C0000031.28N              Y00000.00
D2101170000900100001C0000029.96N              Y00000.00
HTFDF03846520141018                    149082215617288   188110
D4515160000100400004C0000067.61N               00000.00
D6505290000200100001C0000051.26N               00000.00
D3343520000300300003C0000017.43N               00000.00
D6500610000400100001C0000030.86N               00000.00
HTFDF70856620141018                    149089415617338   283170
D2851820000100100001C0000021.54N               00000.00
D4080770000200300003C0000017.36N               00000.00
D5503060000300200002C0000083.97N               00000.00
D5503860000400100001C0000088.76N               00000.00
D7793180000500100001C0000051.12N               00000.00
D7500640000600100001P0000004.99Y               00000.00
D8738090000700200002C0000012.36N               00000.00
D1050680000800200002C0000012.01N               00000.00
D9015920000900100001C0000164.15N               00000.00
D8795060001000100001C0000040.01N               00000.00
D8810110001100100001C0000025.88N               00000.00
D8850220001200100001C0000038.52N               00000.00
D8729940001300100001C0000014.63N               00000.00
D8800850001400200002C0000016.71N               00000.00
D8700250001500100001C0000016.58N               00000.00
D6504320001600100001C0000015.95N               00000.00
D6880090001700300003C0000007.23N               00000.00
D6602170001800100001C0000031.98N               00000.00
D6933500001900200002C0000043.89N               00000.00
D6931200002000100001C0000041.24N               00000.00
D7711220002100100001C0000019.02N               00000.00
D7791550002200100001P0000015.29N               00000.00
D7720680002300100001C0000022.37N               00000.00
D7870130002400100001C0000067.85N               00000.00
D7870850002500100001C0000067.02N               00000.00
D6402820002600100001C0000058.90N               00000.00
D6309720002700100001C0000023.22N               00000.00
D6201610002800100001C0000017.51N               00000.00
D6201700002900100001C0000017.12N               00000.00
D6201150003000100001P0000010.16N               00000.00
D6608160003100100001C0000056.78N               00000.00
D7970590003200100001C0000024.65N               00000.00
D6850420003300100001C0000029.50N               00000.00
D5443490003400100001C0000063.53N               00000.00
D3634360003500100001C0000027.41N               00000.00
D3386100003600100001C0000016.03N               00000.00
D3720220003700100001C0000066.95N               00000.00
D4531600003800100001C0000038.60N               00000.00
D5011310003900200002C0000057.26N               00000.00
D5091620004000100001C0000048.09N               00000.00
D5301070004100200002C0000016.28N               00000.00
D2869980004200100001C0000022.87N               00000.00
D1402960004300300003C0000012.57N               00000.00
D5501200004400200002C0000107.65N               00000.00
D8110180004500100001C0000026.80N               00000.00
D4081110004600100001C0000022.12N               00000.00
D7352030004700100001C0000062.88N               00000.00
D7360040004800200002P0000021.00N               00000.00
D7520300004900100001P0000003.66Y               00000.00
D7350020005000100001C0000098.63N               00000.00
D7400900005100100001C0000002.72Y               00000.00
D7460550005200100001C0000032.10N               00000.00
D7470600005300100001C0000003.04Y               00000.00
D4922060005400200002C0000002.75Y               00000.00
D6624120005500100001C0000022.16N               00000.00
D6620920005600200002C0000035.88N               00000.00
D6624070005700100001C0000027.90N               00000.00
D6624110005800100001C0000025.32N               00000.00
D6801060005900300003C0000023.09N               00000.00
D1700480006001000010C0000017.21N               00000.00
HTFDF70339220141020                    149101415617424 YY466060
D1065180000100100001C0000011.18N              Y00000.00
D2900200000200100001C0000013.38N              Y00000.00
D2900730000300100001C0000014.95N              Y00000.00
D2855970000400100001C0000014.33N              Y00000.00
D2881290000500100001C0000010.92N              Y00000.00
D0260050000600100001C0000024.23N              Y00000.00
D1081910000700100001C0000009.13N              Y00000.00
D0450800000800100001C0000027.73N              Y00000.00
D1650410000900100001C0000010.23N              Y00000.00
D2052040001000100001C0000018.08N              Y00000.00
D2100250001100100001C0000012.08N              Y00000.00
D6300660001200200002C0000011.58N               00000.00
D5066000001300100001C0000002.80Y              Y00000.00
D6002610001400100001C0000036.97N               00000.00
D6202220001500100001C0000029.63N               00000.00
D8090100001600100001C0000019.11N               00000.00
D6502400001700100001C0000026.08N               00000.00
D6502500001800100001C0000025.58N               00000.00
D6502910001900100001C0000027.83N               00000.00
D7990190002000100001C0000034.47N               00000.00
D7990910002100100001C0000039.27N               00000.00
D6540040002200100001C0000013.34N               00000.00
D6600050002300100001P0000007.07N               00000.00
D6610360002400100001C0000016.19N               00000.00
D6740480002500100001C0000009.15N               00000.00
D6740590002600100001C0000012.71N               00000.00
D6770650002700100001C0000014.15N               00000.00
D6772610002800100001C0000023.73N               00000.00
D6390250002900100001C0000029.12N               00000.00
D6620070003000100001P0000010.94N               00000.00
D6622650003100100001C0000027.13N               00000.00
D4128570003200100001C0000036.13N               00000.00
D5341190003300100001C0000030.63N               00000.00
D4876990003400100001C0000027.93N               00000.00
D4871130003500100001C0000036.25N               00000.00
D4871450003600200002C0000031.53N               00000.00
D4876780003700100001C0000053.41N               00000.00
D4927730003800100001C0000032.90N               00000.00
D3747360003900100001C0000020.52N               00000.00
D3917730004000100001C0000020.67N               00000.00
D3361250004100100001C0000020.61N               00000.00
D3540330004200100001C0000018.19N               00000.00
D7000030004300100001C0000020.68N               00000.00
D7000350004400100001C0000013.02N               00000.00
D8712500004500100001C0000014.64N               00000.00
D8712510004600100001C0000014.64N               00000.00
D8712520004700100001C0000013.45N               00000.00
D8403660004800100001C0000022.77N               00000.00
D8230020004900100001C0000014.61N               00000.00
D9282820005000200002C0000012.37N               00000.00
D9282840005100500005C0000005.71N               00000.00
D9285710005200200000C0000005.29N             O 00000.00
D8600600005300100001C0000031.13N               00000.00
D7401240005400100001C0000031.02N               00000.00
D9209200005500100001C0000016.78N               00000.00
D6390710005600100001C0000030.83N               00000.00
D1097110005700100000C0000051.83N             O 00000.00
D7800070005800100001C0000026.68N               00000.00
D9282790005900200002C0000009.07N               00000.00
HTFDF70229120141020                    149115715617557 Y 336000
D0090830000100200002C0000030.98N              Y00000.00
D1081910000200100001C0000009.07N              Y00000.00
D1260750000300300003C0000019.01N              Y00000.00
D1950050000400100001C0000011.78N              Y00000.00
D6740480000500100001C0000011.24N               00000.00
HTFDF03846520141018                    149124715617658   188110
D2840650000100400004C0000008.55N               00000.00
D6501400000200100001C0000029.89N               00000.00
D6600170000300100001C0000015.40N               00000.00
D6913200000400100001C0000043.44N               00000.00
D7000330000500100001C0000012.86N               00000.00
D8600200000600100001C0000017.36N               00000.00
D8721550000700100001C0000020.78N               00000.00
D1026150000800300003C0000081.25N               00000.00
D1036850000900100001C0000032.39N               00000.00
D1044690001000100001C0000026.14N               00000.00
D1270180001100200002C0000015.91N               00000.00
D2850130001200200002C0000021.92N               00000.00
D2904940001300100001C0000021.18N               00000.00
D3435010001400100001C0000018.48N               00000.00
D3986530001500100001C0000026.55N               00000.00
D3986560001600100001C0000025.69N               00000.00
D4152820001700400004C0000030.11N               00000.00
D4301220001800100001C0000050.47N               00000.00
D5070850001900500005C0000060.34N               00000.00
D5500090002000200002C0000001.32Y               00000.00
D6200050002100100001C0000013.79N               00000.00
D6305500002200100001C0000009.67N               00000.00
D7720800002300100001C0000021.72N               00000.00
D2841700002400400004C0000011.01N               00000.00
HTFDF70212620141018ALICIA CARDENAS     149134915617765   100050
D2851130000100100001C0000022.52N               00000.00
D0801160000200100001C0000024.19N               00000.00
D0920370000300100001C0000018.41N               00000.00
D1000200000400100001C0000024.85N               00000.00
D0280740000500100001C0000033.18N               00000.00
D1230010000600300003C0000025.94N               00000.00
D2751600000700100001C0000068.86N               00000.00
D1552500000800100001C0000019.22N               00000.00
D1501050000900100001C0000017.35N               00000.00
D1700480001000600006C0000018.12N               00000.00
D0980630001100100001C0000011.00N               00000.00
D2200120001200300003C0000020.88N               00000.00
D7713100001300100001C0000014.59N               00000.00
D7713000001400200002C0000020.19N               00000.00
D7711290001500100001C0000020.49N               00000.00
D6201120001600100001C0000032.60N               00000.00
D6505440001700100001C0000020.36N               00000.00
D6623050001800300003C0000039.28N               00000.00
D9041200001900200002C0000016.78N               00000.00
D6621100002000100001C0000028.11N               00000.00
D7972310002100200002C0000015.88N               00000.00
D7670440002200100001C0000029.83N               00000.00
D6520250002300300003C0000035.92N               00000.00
D5070370002400200002C0000068.61N               00000.00
D5070820002500100001C0000075.03N               00000.00
D4878350002600400004C0000027.45N               00000.00
D3931250002700200002C0000029.81N               00000.00
D4834440002800100001C0000037.73N               00000.00
D1002170002902000020C0000040.05N               00000.00
D4805910003000100001C0000116.61N               00000.00
D4675830003100100001C0000423.08N               00000.00
D3251830003200100001C0000011.97N               00000.00
D3435010003300100001C0000017.97N               00000.00
D3530800003400600006C0000017.90N               00000.00
D9041220003500100001C0000016.67N               00000.00
D6900540003600100001C0000010.82N               00000.00
D6880150003700100001C0000008.02N               00000.00
D7959020003800100001C0000013.04N               00000.00
D6822420003900100001C0000031.77N               00000.00
D6802000004000100001C0000025.31N               00000.00
D6870290004100100001C0000050.00N               00000.00
D8158080004200100001C0000025.62N               00000.00
D8160460004300100001C0000050.24N               00000.00
D8723360004400100001C0000021.62N               00000.00
D8724770004500100001C0000017.98N               00000.00
D3895060004600200002C0000049.04N               00000.00
D7350530004700100001C0000030.50N               00000.00
D7400980004800400004C0000033.12N               00000.00
D7792200004900100001C0000016.61N               00000.00
D6690050005000300003C0000011.42N               00000.00
D7792950005100100001C0000027.20N               00000.00
D7791780005200600006C0000023.49N               00000.00
D7800340005300100001C0000026.01N               00000.00
HTFDF02125520141024                    149139915617819   468150
D6304200000100100001C0000029.77N               00000.00
D8002860000200100001C0000017.54N               00000.00
D6992680000300100001C0000029.90N               00000.00
D6992730000400100001C0000029.91N               00000.00
D6990110000500100001C0000020.14N               00000.00
D6605540000600100001C0000046.83N               00000.00
D5400180000700100001C0000040.35N               00000.00
D4877430000800100001C0000031.38N               00000.00
D3706520000900100001C0000054.49N               00000.00
D5491220001000100001C0000023.37N               00000.00
D7352030001100100001C0000072.71N               00000.00
HPFDF70171720141018                    688700715618060   269160
D0571020000100100001C0000033.58N               00000.00
D2851080000200100001P0000003.36N               00000.00
D3384900000300300003P0000002.37N               00000.00
D3530560000400200002C0000029.20N               00000.00
D3634540000500100001C0000028.49N               00000.00
D4321440000600100001C0000066.26N               00000.00
D4923030000700200002C0000003.09Y               00000.00
D4929900000800100001C0000029.59N               00000.00
D5061240000900100001C0000045.14N               00000.00
D5501520001000400004C0000086.41N               00000.00
D6500350001100100001C0000022.95N               00000.00
D6504740001200100001C0000021.77N               00000.00
D6620280001300100001P0000009.67N               00000.00
D6620520001400100001P0000012.89N               00000.00
D6622390001500100001P0000015.48N               00000.00
D6626560001600100001P0000013.19N               00000.00
D6740500001700100001C0000013.37N               00000.00
D6748110001800100001C0000017.47N               00000.00
D6800870001900100001C0000035.15N               00000.00
D6992500002000200002C0000023.34N               00000.00
D6992530002100100001C0000018.48N               00000.00
D6992750002200100001C0000028.81N               00000.00
D7420130002300200002P0000009.06N               00000.00
D8158080002400100001C0000025.07N               00000.00
D8713170002500100001C0000024.82N               00000.00
D8724540002600100001C0000047.95N               00000.00
D8800530002700100001C0000082.15N               00000.00
D9286950002800100001C0000014.06N               00000.00
HTFDF70348020141018                    149194015618394  Y271040
D7792820000100100001C0000019.70N               00000.00
D7400980000200900009C0000032.22N               00000.00
D7350500000300200002C0000094.72N               00000.00
D7460550000401000010C0000032.27N               00000.00
D2852640000500300003C0000031.49N               00000.00
D2854500000600100001C0000007.76N               00000.00
D2500100000700400004C0000021.99N               00000.00
D7792000000800200002C0000015.93N               00000.00
D2851280000900100001P0000004.79N               00000.00
D5305720001000100001C0000042.97N               00000.00
D5065110001100100001C0000002.85Y               00000.00
D5060500001200100001C0000052.08N               00000.00
D5000430001300100001C0000003.28Y               00000.00
D5073390001400100001C0000251.09N               00000.00
D5410060001500100001C0000048.68N               00000.00
D5442690001600100001C0000057.48N               00000.00
D4670120001700100001P0000056.29N               00000.00
D5500580001800300003C0000108.26N               00000.00
D5500030001900300003C0000001.29Y               00000.00
D4875980002000100001C0000031.92N               00000.00
D2901350002100100001C0000006.72N               00000.00
D4129850002200100001C0000018.06N               00000.00
D3530710002300100001C0000018.98N       353068R 00000.00
D4088350002400100001C0000018.01N               00000.00
D1102280002500200002C0000014.05N               00000.00
D4088450002600100001C0000041.59N               00000.00
D4080570002700100001C0000017.95N               00000.00
D1036340002800400004C0000018.30N               00000.00
D6990370002901500015C0000012.50N               00000.00
D8000010003000100001C0000043.97N               00000.00
D6520200003100100001C0000035.85N               00000.00
D6540070003200100001C0000019.36N               00000.00
D6622020003300100001P0000013.15N               00000.00
D6622950003400100001C0000038.67N               00000.00
D6504740003500100001C0000021.94N               00000.00
D7791550003600100001P0000016.72N               00000.00
D7791230003700200002C0000020.64N               00000.00
D7800020003800100001C0000014.55N               00000.00
D6501040003900100001C0000024.90N               00000.00
D6501650004000100001C0000026.42N               00000.00
D6505140004100100001C0000025.49N               00000.00
D6504320004200600006C0000014.89N               00000.00
D6860070004300100001C0000007.15N               00000.00
HTFDF70348020141018                    149198115618447  Y271040
D1950030000100100001C0000016.59N               00000.00
D1500150000200100001C0000007.18N               00000.00
D0570740000300700007C0000032.10N               00000.00
D1044010000400200002C0000020.63N               00000.00
D1160790000500100001C0000030.74N               00000.00
D1260050000600200002C0000026.93N               00000.00
D0290290000700100001C0000011.42N               00000.00
D1400060000800200002C0000018.58N               00000.00
D1510080000900100001C0000014.49N               00000.00
D1600100001000100001C0000011.42N               00000.00
D1550300001100300003C0000013.69N               00000.00
D1650180001200200002C0000022.78N               00000.00
D1024580001300100001C0000015.45N               00000.00
D1653500001400100001C0000016.25N               00000.00
D1650850001500100001C0000013.58N               00000.00
D1700170001600100000C0000013.81N             O 00000.00
D0951550001700100001C0000013.35N               00000.00
D2101170001800400004C0000020.11N               00000.00
D0930400001900100001P0000004.76N               00000.00
HTFDF70339220141020CH OP Woundcare Cent149198615618453   466060
D6308240000100200002C0000009.83N               00000.00
D6308430000200200002C0000006.99N               00000.00
D6390390000300100001C0000012.16N               00000.00
D6390900000400200002C0000012.16N               00000.00
D6390970000500200002C0000012.16N               00000.00
D6391000000600200002C0000012.16N               00000.00
D6300660000700200002C0000011.58N               00000.00
HTFDF03044920141020                    149199215618464 Y 000000
D1053820000100100001C0000012.26N              Y00000.00
D2838720000200100001C0000008.73N              Y00000.00
D1081910000300100001C0000008.45N              Y00000.00
D0311900000400100001P0000004.39N              Y00000.00
D1650470000500100001C0000012.50N              Y00000.00
D0330420000600100001C0000017.69N              Y00000.00
D6390900000700100001C0000010.85N               00000.00
D6390970000800100001C0000010.85N               00000.00
D7830190000900100001C0000030.22N               00000.00
D6820230001000100001P0000008.57N               00000.00
HTFDF70348020141018                    149200115618471   271040
D9022940000100100001C0000035.36N               00000.00
D6308480000200100001C0000009.09N               00000.00
D6392020000300200002C0000008.92N               00000.00
D6392000000400200002C0000008.92N               00000.00
D6308240000500300003C0000009.09N               00000.00
D6308840000600200002C0000008.92N               00000.00
D6303210000700100001C0000007.26N               00000.00
D6390970000800100001C0000011.74N               00000.00
D6309690000900100001C0000004.55N               00000.00
D6390900001000100001C0000011.74N               00000.00
D6308670001100100001C0000015.64N               00000.00
D6308740001200100001C0000015.97N               00000.00
D6201610001300100001C0000018.41N               00000.00
HTFDF73602120141018                    149201815618510   269000
D1003520000100100001C0000038.83N               00000.00
D1003540000200200002C0000028.90N               00000.00
D1010420000300600006C0000014.02N               00000.00
D1010450000400300003C0000015.32N               00000.00
D1008060000500100001C0000017.92N               00000.00
D1005280000600100001C0000019.21N               00000.00
D1061360000700100001C0000020.75N               00000.00
D7870850000800200002C0000064.75N               00000.00
D1003860000900100001C0000022.29N               00000.00
D8000880001000200002C0000039.07N               00000.00
D8000930001100300003C0000044.89N               00000.00
D6603990001200500005C0000017.97N               00000.00
D1003200001300400004C0000027.64N               00000.00
D6760060001400100001C0000017.03N               00000.00
D6760070001500100001C0000008.89N               00000.00
D9041020001600200002C0000044.82N               00000.00
D3120710001700100001C0000044.07N               00000.00
D1004230001800100001C0000030.04N               00000.00
D4133980001900200002C0000032.71N               00000.00
D5080210002000800008C0000023.87N               00000.00
D5080220002104000040C0000024.87N               00000.00
D5067340002200300003C0000056.17N               00000.00
D5067140002303600036C0000055.37N               00000.00
D5466590002400200002C0000041.16N               00000.00
D4883990002501400014C0000065.32N               00000.00
D4883980002600100001C0000038.12N               00000.00
D5465150002700300003C0000050.89N               00000.00
D3265470002800200002C0000030.45N               00000.00
D3540490002903400034C0000018.14N               00000.00
D1005480003000100001C0000037.94N               00000.00
D1004950003100100001C0000024.82N               00000.00
D1003470003200100001C0000012.47N               00000.00
D1000110003300100001C0000036.28N               00000.00
D9029870003400200002C0000047.10N               00000.00
D8700570003500300003C0000014.63N               00000.00
D9029950003600300003C0000056.75N               00000.00
D7401460003700100001C0000051.30N               00000.00
D8852870003800100001C0000037.42N               00000.00
D7791150003900600006C0000025.86N               00000.00
D7800040004000100001C0000024.68N               00000.00
D1000120004100100001C0000074.15N               00000.00
HTFDF70348020141018                    149203415618524   271040
D8770260000100100001C0000013.85N               00000.00
D8713240000200100001C0000044.03N               00000.00
D8738090000300100001C0000012.50N               00000.00
D9285310000400200002C0000044.73N               00000.00
D8810450000500100001C0000054.72N               00000.00
D8740430000600100001C0000020.86N               00000.00
D9003680000700100001C0000095.70N               00000.00
D9026410000800100001C0000057.69N               00000.00
D9303810000900600006C0000104.93N               00000.00
HPFDF71363720141018                    688848715618579  Y000000
D1069500000100200000C0000004.60Y             O 00000.00
HTFDF34740020141021                    149212315618676 Y 129060
D8110180000100100001C0000030.99N               00000.00
D3753310000200200002C0000050.88N               00000.00
D6404080000300100001C0000079.13N               00000.00
D4125300000400100001C0000042.57N               00000.00
D6880070000500100001C0000016.51N               00000.00
D1260050000600200002C0000031.19N              Y00000.00
D2844540000700100001C0000012.17N              Y00000.00
D2844640000800100001C0000013.19N              Y00000.00
D1400800000900100001C0000023.26N              Y00000.00
D0310690001000100001C0000036.25N              Y00000.00
D3746150001100700007C0000052.54N               00000.00
D6610960001200100001P0000013.63N               00000.00
D6690270001300200002P0000008.98N               00000.00
D2000940001400100001C0000035.89N              Y00000.00
D7810060001500100001C0000026.99N               00000.00
D6750300001600100001C0000032.83N               00000.00
D4905220001700600006C0000001.45Y               00000.00
HPFDF73253020141018                    688966415619012   322010
D0230050000100900009C0000037.78N               00000.00
D0250100000201200012C0000025.69N               00000.00
D0260050000304900049C0000025.90N               00000.00
D1022070000401500015C0000026.25N               00000.00
HTFDF34771920141018                    149227715619079   009030
D1270180000100100001C0000014.33N               00000.00
D3521790000200900009C0000017.62N               00000.00
D3266060000300300003C0000033.96N               00000.00
D3626060000400800008C0000020.22N               00000.00
D3701520000500200002C0000017.22N               00000.00
D4700160000600100001C0000085.67N               00000.00
D3608290000700100001C0000017.62N               00000.00
D4881450000800300003C0000032.49N               00000.00
D5380470000900100001C0000047.82N               00000.00
D7870090001000100001C0000064.03N               00000.00
D7870850001100100001C0000064.75N               00000.00
D7870350001200100001C0000033.43N               00000.00
D6300010001300100001C0000006.66N               00000.00
D7992040001400100001C0000025.97N               00000.00
D6850200001500100001C0000024.09N               00000.00
D7730160001600100001C0000039.84N               00000.00
D7713030001700100001C0000011.55N               00000.00
D6740320001800300003C0000022.08N               00000.00
D6800580001900200002C0000017.89N               00000.00
D8401790002000100001C0000020.14N               00000.00
D8742090002100100001C0000097.28N               00000.00
D9007180002200200002C0000027.40N               00000.00
D9006450002300100001C0000026.31N               00000.00
D9011810002400100001C0000041.60N               00000.00
D8891530002500200002C0000011.85N               00000.00
D8851680002600300003C0000037.64N               00000.00
D9031760002700500005C0000021.64N               00000.00
D2112930002800600006C0000018.95N               00000.00
D8751990002900100001C0000021.33N               00000.00
D1008750003000200002C0000027.07N               00000.00
HPFDF70461820141020                    689031515619166 Y 000000
D2877600000100200002C0000029.10N              Y00000.00
HTFDF02452420141020                    149233815619355 Y 466080
D0920370000100200002C0000016.06N              Y00000.00
D1230080000200100001C0000028.76N              Y00000.00
D1551950000300100001C0000024.59N              Y00000.00
D1700480000400300003C0000018.12N              Y00000.00
D2101170000500200002C0000030.24N              Y00000.00
D5503690000600100001C0000098.08N              Y00000.00
D7792200000700100001C0000016.61N               00000.00
D1002170000802000020C0000040.05N               00000.00
D1240120000900100001C0000018.12N              Y00000.00
D3931250001000400004C0000029.81N               00000.00
D4470120001100200002C0000054.50N               00000.00
D4678460001200200002C0000244.51N               00000.00
D6690050001300400004C0000011.42N               00000.00
D7790510001401000010C0000033.03N               00000.00
D1081750001500100001C0000030.00N              Y00000.00
D2851130001600500005C0000022.52N              Y00000.00
D4423940001700100001C0000460.88N               00000.00
D5070370001800200002C0000068.61N               00000.00
D6620590001900100001C0000034.10N               00000.00
D7400980002000500005C0000033.12N               00000.00
D7681030002100300003C0000035.18N               00000.00
D7686400002200300003C0000036.18N               00000.00
D7710800002300100001C0000019.03N               00000.00
D7715100002400600006C0000017.51N               00000.00
D7793860002500100001C0000018.37N               00000.00
D8160460002600100001C0000050.24N               00000.00
D6741180002700200002C0000010.17N               00000.00
D6201170002800100001C0000034.86N               00000.00
D7792950002900100001C0000027.20N               00000.00
D6741350003000100001C0000009.89N               00000.00
D6602060003100100001C0000049.36N               00000.00
D6742330003200100001C0000009.83N               00000.00
D3530800003302500025C0000017.90N               00000.00
D9285610003400600006C0000004.33N               00000.00
D6741380003500100001C0000009.72N               00000.00
D6741510003600100001C0000010.23N               00000.00
D9041200003700400004C0000016.78N               00000.00
HTFDF02640420141018cc                  149235115619497   271020
D8600700000100100001C0000021.78N               00000.00
D8700250000200100001C0000017.90N               00000.00
D8400170000300100001C0000027.57N               00000.00
D8700450000400100001C0000023.66N               00000.00
D8600430000500100001C0000026.26N               00000.00
D8713470000600300003C0000028.55N               00000.00
D8702060000700400004C0000014.98N               00000.00
D8702120000800100001C0000023.36N               00000.00
D8810450000900100001C0000043.13N               00000.00
D8810260001000100001C0000041.88N               00000.00
D8791970001100100001C0000017.67N               00000.00
D8760790001200100001C0000030.54N               00000.00
D9024360001300200002C0000031.19N               00000.00
D8742690001400100001C0000017.17N               00000.00
D8753580001500100001C0000019.52N               00000.00
D9418140001600100001C0000032.38N               00000.00
D8158150001700100001C0000047.20N               00000.00
D8839020001800100001C0000020.88N               00000.00
D9028930001900100001C0000055.62N               00000.00
D8880650002000100001C0000007.53N               00000.00
D8850120002100100001C0000012.49N               00000.00
D9007790002200100001C0000071.86N               00000.00
D8880760002300100001C0000015.92N               00000.00
D8840730002400100001P0000004.50N               00000.00
D8810050002500100001C0000017.93N               00000.00
HTFDF02640420141018cc                  149235415619529   271020
D3440870000100100001C0000031.42N               00000.00
D7870090000200100001C0000066.05N               00000.00
D7870290000300100001C0000066.05N               00000.00
D7790110000400400004C0000020.97N               00000.00
D2900450000500100001C0000013.38N               00000.00
D6400370000600200002C0000020.20N               00000.00
D7003110000700100001C0000013.38N               00000.00
D7000930000800100001C0000014.18N               00000.00
D7000190000900200002C0000013.88N               00000.00
D6760260001000100001C0000005.44N               00000.00
D6520070001100100001C0000040.61N               00000.00
D6900490001200400004C0000007.27N               00000.00
D7800070001300100001C0000026.68N               00000.00
D6880900001400300003C0000014.08N               00000.00
D7930200001500100001C0000044.38N               00000.00
D6610890001600100001P0000007.77N               00000.00
D6601530001700100001P0000008.97N               00000.00
D7970350001800100001P0000024.28N               00000.00
D6862420001900100001C0000021.03N               00000.00
D7930680002000100001P0000029.61N               00000.00
D6504910002100100001C0000024.43N               00000.00
D7670330002200100001C0000022.18N               00000.00
D7670570002300100001C0000022.18N               00000.00
D9014070002400100001C0000014.33N               00000.00
D7713490002500200002C0000009.83N               00000.00
D1008080002600100001C0000040.39N               00000.00
D7740540002700100001C0000008.39N               00000.00
D7741810002800100001C0000006.89N               00000.00
D6601960002900100001C0000027.17N               00000.00
D6640120003000100001P0000005.00N               00000.00
D6980110003100100001C0000016.39N               00000.00
D6500100003200600006C0000019.18N               00000.00
D6504310003300200002C0000018.58N               00000.00
D6505140003400100001C0000019.77N               00000.00
D6850380003500100001C0000026.70N               00000.00
D6800860003600100001C0000024.88N               00000.00
D6851320003700100001C0000033.23N               00000.00
D6870100003800100001C0000029.44N               00000.00
D3934020003900200002C0000034.42N               00000.00
D3895160004000100001C0000041.50N               00000.00
D9018690004100200002C0000016.10N               00000.00
D7792220004200100001C0000038.13N               00000.00
D7350020004300300003C0000072.00N               00000.00
D8111270004400100001C0000035.63N               00000.00
D4920900004500400004C0000002.46Y               00000.00
D5066000004600100001C0000002.80Y               00000.00
D5046080004700100001C0000003.35Y               00000.00
D7799060004800100001C0000038.58N               00000.00
D4518020004900100001C0000138.62N               00000.00
D1062150005000200002C0000076.25N               00000.00
D4872890005100100001C0000094.00N               00000.00
D5500430005200300003C0000001.11Y               00000.00
D4882400005300200002C0000115.20N               00000.00
D4877770005400200002C0000063.40N               00000.00
D5181650005500300003C0000001.12Y               00000.00
D4929860005600100001C0000032.00N               00000.00
D4148900005700100001C0000027.33N               00000.00
D4148780005800100001C0000031.83N               00000.00
D6623020005900500005C0000023.73N               00000.00
D3933880006000300003C0000034.23N               00000.00
D3425880006100100001C0000014.27N               00000.00
D3362100006200100001C0000016.32N               00000.00
D4493710006300200002C0000084.15N               00000.00
D4493610006400100001C0000213.18N               00000.00
D3482040006500500005C0000016.83N               00000.00
D3385600006600400004C0000015.92N               00000.00
D4301020006700100001C0000068.43N               00000.00
D5308130006800100001C0000028.65N               00000.00
D4121290006900600006C0000013.68N               00000.00
D4126490007000400004C0000013.93N               00000.00
D3421400007100100001C0000013.46N               00000.00
D3251990007200600006C0000014.85N               00000.00
D3435030007300100001C0000017.52N               00000.00
D5307960007400100001C0000043.50N               00000.00
D5308740007500100001C0000057.70N               00000.00
D3931250007600200002C0000026.18N               00000.00
D7950040007700100001C0000009.83N               00000.00
D8000410007800100001C0000050.68N               00000.00
D7713100007900100001C0000013.08N               00000.00
D6770950008000100001C0000011.42N               00000.00
D6772170008100100001C0000029.57N               00000.00
D6608160008200100001C0000039.38N               00000.00
D9017530008300100001C0000007.41N               00000.00
D6690270008400100001P0000006.99N               00000.00
HTFDF35745020141021                    149235915619545 Y 440090
D1270260000100100001C0000021.79N              Y00000.00
D1650100000200100001C0000021.67N              Y00000.00
D3846740000300600006C0000038.53N               00000.00
D3937130000400100001C0000043.58N               00000.00
D5387100000500100001C0000034.88N               00000.00
D5387620000600300003C0000040.77N               00000.00
D6505240000700300003C0000024.87N               00000.00
D6601040000800100001C0000023.47N               00000.00
D7500330000900100001P0000017.47N               00000.00
HTFDF71651320141018                    149236015619546   012030
D1078450000100300003C0000011.97N               00000.00
D1261800000200300003C0000017.85N               00000.00
D1650700000300300003C0000015.21N               00000.00
D1008750000400100001C0000027.07N               00000.00
D6741320000500100001C0000009.75N               00000.00
D6746510000600200002C0000015.92N               00000.00
D6746580000700100001C0000012.72N               00000.00
D6625930000800100001C0000018.66N               00000.00
D6691010000900300003C0000032.45N               00000.00
D7792820001000100001C0000014.93N               00000.00
D4872620001100300003C0000059.05N               00000.00
D1025330001201000010C0000002.71Y               00000.00
D5443810001300300003C0000026.85N               00000.00
D6505480001401200012C0000023.23N               00000.00
D6520330001500600006C0000027.64N               00000.00
D6540070001600100001C0000017.91N               00000.00
D7800020001700200002C0000013.86N               00000.00
D6760260001800100001C0000004.07N               00000.00
D6610930001900100001C0000016.89N               00000.00
D6980140002000100001C0000030.64N               00000.00
D6990550002100100001C0000013.78N               00000.00
D7770290002200100001C0000007.22N               00000.00
D1033650002300100001C0000010.56N               00000.00
D7930780002400100001C0000030.61N               00000.00
D9031760002500600006C0000021.64N               00000.00
D7792290002600100001C0000035.70N               00000.00
D9000950002703500035C0000006.52N               00000.00
D8401790002800100001C0000020.14N               00000.00
D8600550002900200002C0000012.55N               00000.00
D8600150003000200002C0000008.96N               00000.00
D8700100003100200002C0000015.87N               00000.00
D8700200003200100001C0000026.40N               00000.00
D9012040003300200002C0000018.82N               00000.00
D9023650003400400004C0000023.82N               00000.00
D8712880003500100001C0000013.95N               00000.00
D8712910003600100001C0000013.95N               00000.00
D8800500003700200002C0000030.32N               00000.00
D9006890003800200002C0000026.31N               00000.00
D9007170003900200002C0000027.40N               00000.00
D9007260004000100001C0000038.06N               00000.00
D9021200004100200002C0000023.29N               00000.00
D8195130004200100001C0000013.86N               00000.00
D9180890004300200002C0000032.92N               00000.00
D8859010004400100001C0000007.92N               00000.00
D7870090004500200002C0000064.03N               00000.00
D7870130004600100001C0000064.03N               00000.00
D7870350004700200002C0000033.43N               00000.00
D7870370004800100001C0000033.43N               00000.00
D7870850004900200002C0000064.75N               00000.00
D7872330005000200002C0000033.43N               00000.00
D7873350005100200002C0000033.43N               00000.00
HTFDF71519420141018                    149236115619548  Y280070
D3720730000100100001C0000063.87N               00000.00
D4877990000200100001C0000056.50N               00000.00
D4871260000300300003C0000029.32N               00000.00
D4922310000400200002C0000023.10N               00000.00
D5308030000500200002C0000090.92N               00000.00
D0950680000600200002C0000008.28N               00000.00
D1230010000700400004C0000023.33N               00000.00
D1402610000800200002C0000021.54N               00000.00
D1701100000901200012C0000014.23N               00000.00
D2100290001000400004C0000018.13N               00000.00
D0070010001100100001C0000009.26N               00000.00
D0571020001200300003C0000025.71N               00000.00
D1240120001300100001C0000015.59N               00000.00
D1520260001400200002C0000020.62N               00000.00
D2841770001500100001C0000018.67N               00000.00
D1005150001600200000C0000039.66N             O 00000.00
D6402380001700100001C0000023.82N               00000.00
D7870090001800100001C0000064.73N               00000.00
D7871670001900100001C0000067.42N               00000.00
D7930690002000100001C0000154.99N               00000.00
D3949080002100100001C0000024.90N               00000.00
D8407610002200100001C0000022.18N               00000.00
D8000940002300100001C0000013.86N               00000.00
D6620970002400100001C0000040.41N               00000.00
D6628540002500100001C0000052.82N               00000.00
D7740330002600100001C0000037.73N               00000.00
D7350440002700100001C0000083.54N               00000.00
D7460280002800100001C0000044.29N               00000.00
D7620590002900100001C0000087.15N               00000.00
D2500100003000100001C0000021.19N               00000.00
D7400220003100100001C0000039.69N               00000.00
D7400780003200200002C0000031.58N               00000.00
D8859030003300100001C0000048.07N               00000.00
D6608160003400200002C0000046.36N               00000.00
D8140860003500200002C0000034.01N               00000.00
D3701290003600100001C0000039.53N               00000.00
D3265590003700400004C0000029.32N               00000.00
D4086960003800100001C0000017.59N               00000.00
D8810170003900100001C0000022.66N               00000.00
D8810320004000200002C0000031.52N               00000.00
D8407230004100100001C0000024.01N               00000.00
D8724350004200100001C0000025.08N               00000.00
D8724760004300100001C0000017.99N               00000.00
D8837180004400100001C0000052.79N               00000.00
D9184880004500500005C0000006.53N               00000.00
D7794120004600400004C0000021.95N               00000.00
D8600700004700200002C0000020.28                00000.00
D8600550004800100001C0000013.90                00000.00
HTFDF35512320141018                    149236315619552   541010
D0280740000100100001C0000031.62N               00000.00
D0290290000200100001C0000013.05N               00000.00
D0570740000300400004C0000030.05N               00000.00
D1078450000400100001C0000011.97N               00000.00
D2101170000501000010C0000027.83N               00000.00
D1261800000600100001C0000017.85N               00000.00
D1650700000700100001C0000015.21N               00000.00
D6746510000800100001C0000015.92N               00000.00
D6691010000900300003C0000032.45N               00000.00
D7792820001000100001C0000014.93N               00000.00
D4872620001100100001C0000059.05N               00000.00
D1025330001200200002C0000002.71Y               00000.00
D5443810001300200002C0000026.85N               00000.00
D6505480001401400014C0000023.23N               00000.00
D6520330001500300003C0000027.64N               00000.00
D6540070001600100001C0000017.91N               00000.00
D7800020001700200002C0000013.86N               00000.00
D6760260001800100001C0000004.07N               00000.00
D6990550001900100001C0000013.78N               00000.00
D7770290002000100001C0000007.22N               00000.00
D1033650002100200002C0000010.56N               00000.00
D7930780002200200002C0000030.61N               00000.00
D8001720002300100001C0000040.43N               00000.00
D9031760002400800008C0000021.64N               00000.00
D7792290002500100001C0000035.70N               00000.00
D9000950002603000030C0000006.52N               00000.00
D8600550002700100001C0000012.55N               00000.00
D8700250002800100001C0000015.44N               00000.00
D8700100002900100001C0000015.87N               00000.00
D9012040003000100001C0000018.82N               00000.00
D9023650003100300003C0000023.82N               00000.00
D8712880003200100001C0000013.95N               00000.00
D8770310003300100001C0000024.20N               00000.00
D7870090003400200002C0000064.03N               00000.00
D7870130003500200002C0000064.03N               00000.00
D7870350003600100001C0000033.43N               00000.00
D7872330003700100001C0000033.43N               00000.00
D7873350003800100001C0000033.43N               00000.00
D8195130003900100001C0000013.86N               00000.00
D8800500004000100001C0000030.32N               00000.00
D9006890004100100001C0000026.31N               00000.00
D9007170004200100001C0000027.40N               00000.00
D9021200004300200002C0000023.29N               00000.00
HTFDF34771520141018                    149236515619555D  008050
D1093240000100600006C0000012.13N               00000.00
D6990910000200400004C0000011.04N               00000.00
D7870130000300100001C0000064.03N               00000.00
D7870170000400100001C0000064.03N               00000.00
D7870850000500300003C0000064.75N               00000.00
D7870090000600300003C0000064.03N               00000.00
D7873350000700200002C0000033.43N               00000.00
D5387580000800100001C0000032.05N               00000.00
D3930010000900300003C0000028.85N               00000.00
D5307030001000100001C0000067.84N               00000.00
D8751210001100100001C0000067.57N               00000.00
D8710930001200100001C0000022.74N               00000.00
D6997730001300700007C0000007.58N               00000.00
D8700570001400100001C0000015.65N               00000.00
D8760260001500100001C0000061.22N               00000.00
D6520330001600400004C0000027.64N               00000.00
D7800050001700200002C0000026.12N               00000.00
D9006040001800300003C0000026.31N               00000.00
D9007070001900300003C0000027.40N               00000.00
D9011820002000200002C0000041.60N               00000.00
D6505480002100200002C0000023.23N               00000.00
D6600300002200400004C0000047.16N               00000.00
D6690240002300200002C0000025.39N               00000.00
D7465700002400200002C0000059.23N               00000.00
D4883170002500600006C0000001.93Y               00000.00
D6300010002600100001C0000006.66N               00000.00
D3540580002701400014C0000018.07N               00000.00
D3622320002800500005C0000023.54N               00000.00
D3995670002900100001C0000022.08N               00000.00
D9031760003000200002C0000021.64N               00000.00
D8742130003100200002C0000099.22N               00000.00
D1064970003200400004C0000015.48N               00000.00
D8800500003300200002C0000030.32N               00000.00
HTFDF70611020141018                    149236715619556   012010
D1261800000100100001C0000017.85N               00000.00
D7870090000200100001C0000064.03N               00000.00
D7870130000300100001C0000064.03N               00000.00
D7870350000400100001C0000033.43N               00000.00
D7870850000500200002C0000064.75N               00000.00
D7872330000600100001C0000033.43N               00000.00
D7873350000700200002C0000033.43N               00000.00
D6300010000800100001C0000006.66N               00000.00
D8001700000900100001C0000040.43N               00000.00
D6505480001001000010C0000023.23N               00000.00
D6540070001100300003C0000017.91N               00000.00
D1033650001200100001C0000010.56N               00000.00
D6746510001300100001C0000015.92N               00000.00
D1006580001400100001C0000030.64N               00000.00
D6520330001500500005C0000027.64N               00000.00
D1025330001601000010C0000002.71Y               00000.00
D4872620001700100001C0000059.05N               00000.00
D7930780001800100001C0000030.61N               00000.00
D9000950001902300023C0000006.52N               00000.00
D1008750002000100001C0000027.07N               00000.00
D8401790002100100001C0000020.14N               00000.00
D8600150002200200002C0000008.96N               00000.00
D8600550002300100001C0000012.55N               00000.00
D9006890002400100001C0000026.31N               00000.00
D9007170002500200002C0000027.40N               00000.00
D8712910002600100001C0000013.95N               00000.00
D8195130002700100001C0000013.86N               00000.00
D8700100002800200002C0000015.87N               00000.00
D9012040002900100001C0000018.82N               00000.00
D9023650003000200002C0000023.82N               00000.00
D8770310003100100001C0000024.20N               00000.00
D9021200003200100001C0000023.29N               00000.00
D6503540003300100001C0000015.70N               00000.00
D6691010003400300003C0000032.45N               00000.00
D8850810003500100001C0000064.75N               00000.00
D7792290003600200002C0000035.70N               00000.00
D9031760003700300003C0000021.64N               00000.00
D6760260003800100001C0000004.07N               00000.00
D7800020003900400004C0000013.86N               00000.00
HTFDF70018120141018                    149237015619568   576050
D0280740000100100001C0000031.62N               00000.00
D0290290000200100001C0000013.05N               00000.00
D0570740000300800008C0000030.05N               00000.00
D1078450000400300003C0000011.97N               00000.00
D2101170000500600006C0000027.83N               00000.00
D2113090000600600006C0000017.87N               00000.00
D1008750000700100001C0000027.07N               00000.00
D1261800000800400004C0000017.85N               00000.00
D1650700000900400004C0000015.21N               00000.00
D6746510001000100001C0000015.92N               00000.00
D1025330001100800008C0000002.71Y               00000.00
D4872620001200500005C0000059.05N               00000.00
D5443810001300300003C0000026.85N               00000.00
D6505480001401400014C0000023.23N               00000.00
D6520330001500700007C0000027.64N               00000.00
D6540070001600400004C0000017.91N               00000.00
D6691010001700300003C0000032.45N               00000.00
D6760260001800100001C0000004.07N               00000.00
D7792820001900100001C0000014.93N               00000.00
D7800020002000400004C0000013.86N               00000.00
D1033650002100100001C0000010.56N               00000.00
D6750440002200100001C0000018.69N               00000.00
D6980140002300100001C0000030.64N               00000.00
D6990550002400100001C0000013.78N               00000.00
D7792290002500100001C0000035.70N               00000.00
D7930780002600200002C0000030.61N               00000.00
D8175110002700100001C0000039.42N               00000.00
D8401790002800100001C0000020.14N               00000.00
D8600150002900100001C0000008.96N               00000.00
D8600550003000100001C0000012.55N               00000.00
D8700100003100100001C0000015.87N               00000.00
D8700200003200100001C0000026.40N               00000.00
D8700250003300100001C0000015.44N               00000.00
D8700400003400100001C0000018.12N               00000.00
D9000950003503500035C0000006.52N               00000.00
D9031760003600700007C0000021.64N               00000.00
D7870090003700200002C0000064.03N               00000.00
D7870130003800100001C0000064.03N               00000.00
D7870170003900100001C0000064.03N               00000.00
D7870340004000100001C0000033.43N               00000.00
D7870350004100100001C0000033.43N               00000.00
D7870370004200100001C0000033.43N               00000.00
D7870850004300200002C0000064.75N               00000.00
D7870860004400100001C0000064.75N               00000.00
D7872330004500100001C0000033.43N               00000.00
D7873350004600100001C0000033.43N               00000.00
D8195130004700100001C0000013.86N               00000.00
D8760700004800100001C0000031.64N               00000.00
D8770200004900100001C0000018.11N               00000.00
D8770310005000100001C0000024.20N               00000.00
D8800500005100100001C0000030.32N               00000.00
D8904260005200100001C0000020.56N               00000.00
D8908090005300100001C0000002.05N               00000.00
D9006890005400200002C0000026.31N               00000.00
D9007170005500200002C0000027.40N               00000.00
D9007260005600100001C0000038.06N               00000.00
D9012040005700100001C0000018.82N               00000.00
D9021200005800200002C0000023.29N               00000.00
D9023650005900200002C0000023.82N               00000.00
D8904110006000100001C0000050.97                00000.00
D1061940006100100001C0000019.40                00000.00
HTFDF70776320141018                    149237315619572   261020
D8910100000100200002C0000016.48N               00000.00
D9012440000200100001C0000032.38N               00000.00
D7790400000300100001C0000047.35N               00000.00
D5003780000400200002C0000002.00N               00000.00
D5382190000500100001C0000003.08Y               00000.00
D5413830000600300003C0000018.18N               00000.00
D5415220000700200002C0000024.69N               00000.00
D4920550000800100001C0000002.39Y               00000.00
D5323660000900400004C0000001.00N               00000.00
D5500560001000200002C0000000.99Y               00000.00
D1014670001100100001C0000046.61N               00000.00
D6800580001200100001C0000017.66N               00000.00
D6801080001300100001C0000021.13N               00000.00
D9001920001400100001C0000020.78N               00000.00
D7792100001500100001C0000012.14N               00000.00
D6620900001600100001C0000023.90N               00000.00
D1700450001700300003C0000015.93N               00000.00
D0921100001800100001C0000011.33N               00000.00
D0280730001900100001C0000044.04N               00000.00
D4124890002001200012C0000012.22N               00000.00
D3382120002100200002C0000016.45N               00000.00
D4160860002200100001C0000026.89N               00000.00
D3530430002300200002C0000021.08N               00000.00
D3252090002400200002C0000018.87N               00000.00
D4033130002500100001C0000025.46N               00000.00
D1065640002600200002C0000020.94N               00000.00
D7000040002700100001C0000017.69N               00000.00
D8195130002800100001C0000013.68N               00000.00
HTFDF34772120141018                    149237715619588   009140
D6746510000100200002C0000015.92N               00000.00
D1270180000200200002C0000014.33N               00000.00
D0290130000300100001C0000006.17N               00000.00
D7793130000400100001C0000033.78N               00000.00
D7401400000500200002C0000032.55N               00000.00
D3521790000601200012C0000017.62N               00000.00
D3266060000700400004C0000033.96N               00000.00
D3626060000800700007C0000020.22N               00000.00
D3105550000900100001C0000058.05N               00000.00
D4877360001000100001C0000061.74N               00000.00
D3701520001100100001C0000017.22N               00000.00
D5360060001200100001C0000036.28N               00000.00
D7800050001300100001C0000026.12N               00000.00
D3608290001400200002C0000017.62N               00000.00
D5080200001500200002C0000030.75N               00000.00
D4881450001600700007C0000032.49N               00000.00
D5308690001700100001C0000036.83N               00000.00
D5380470001800100001C0000047.82N               00000.00
D7870090001900200002C0000064.03N               00000.00
D7870850002000100001C0000064.75N               00000.00
D6300290002100100001C0000006.50N               00000.00
D7870340002200100001C0000033.43N               00000.00
D6850200002300200002C0000024.09N               00000.00
D6740320002400200002C0000022.08N               00000.00
D6800580002500200002C0000017.89N               00000.00
D6600300002600100001C0000047.16N               00000.00
D8800500002700100001C0000030.32N               00000.00
D8754090002800100001C0000005.85N               00000.00
D8721570002900100001C0000017.87N               00000.00
D9007180003000100001C0000027.40N               00000.00
D9006450003100100001C0000026.31N               00000.00
D8730040003200100001C0000015.16N               00000.00
D8810090003300100001C0000018.54N               00000.00
D9031760003400500005C0000021.64N               00000.00
D6608160003500100001C0000049.29N               00000.00
D2112930003600500005C0000018.95N               00000.00
D2860010003700500005C0000051.52N               00000.00
D4876400003800100001C0000037.68N               00000.00
D6741320003900100001C0000009.75N               00000.00
D8839640004000100001C0000044.61N               00000.00
D6741580004100100001C0000013.75N               00000.00
HTFDF71556520141018Bill                149237915619594   009160
D1078450000100400004C0000011.97N               00000.00
D2113090000201500015C0000017.87N               00000.00
D1008750000300100001C0000027.07N               00000.00
D6691010000400400004C0000032.45N               00000.00
D0280740000500100001C0000031.62N               00000.00
D0290290000600100001C0000013.05N               00000.00
D0570740000700600006C0000030.05N               00000.00
D1650700000800400004C0000015.21N               00000.00
D1261800000900200002C0000017.85N               00000.00
D4872620001000300003C0000059.05N               00000.00
D5443810001100100001C0000026.85N               00000.00
D6503540001200100001C0000015.70N               00000.00
D1025330001302000020C0000002.71Y               00000.00
D9023650001400300003C0000023.82N               00000.00
D9012040001500100001C0000018.82N               00000.00
D8700200001600100001C0000026.40N               00000.00
D8700100001700400004C0000015.87N               00000.00
D8195130001800100001C0000013.86N               00000.00
D8401790001900200002C0000020.14N               00000.00
D8600550002000100001C0000012.55N               00000.00
D8600150002100400004C0000008.96N               00000.00
D8904260002200100001C0000020.56N               00000.00
D9007170002300500005C0000027.40N               00000.00
D9006890002400300003C0000026.31N               00000.00
D8724390002500100001C0000041.60N               00000.00
D8800500002600300003C0000030.32N               00000.00
D6990550002700100001C0000013.78N               00000.00
D7800020002800900009C0000013.86N               00000.00
D6760260002900200002C0000004.07N               00000.00
D9021200003000200002C0000023.29N               00000.00
D6520330003100700007C0000027.64N               00000.00
D6540070003200300003C0000017.91N               00000.00
D6505480003301200012C0000023.23N               00000.00
D7930780003400200002C0000030.61N               00000.00
D1033650003500200002C0000010.56N               00000.00
D7792290003600200002C0000035.70N               00000.00
D9000950003703000030C0000006.52N               00000.00
D6300010003800200002C0000006.66N               00000.00
D7873350003900400004C0000033.43N               00000.00
D7870090004000300003C0000064.03N               00000.00
D7870170004100100001C0000064.03N               00000.00
D7870350004200100001C0000033.43N               00000.00
D7870850004300100001C0000064.75N               00000.00
D7872330004400400004C0000033.43N               00000.00
D8712880004500100001C0000013.95N               00000.00
D8712890004600100001C0000013.95N               00000.00
D9031760004700600006C0000021.64N               00000.00
D6750010004800100001C0000013.43                00000.00
HTFDF34770920141018                    149238115619596   008040
D1078450000100300003C0000011.97N               00000.00
D0290290000200100001C0000013.05N               00000.00
D1650700000300600006C0000015.21N               00000.00
D1261800000400300003C0000017.85N               00000.00
D7870090000500300003C0000064.03N               00000.00
D7870130000600100001C0000064.03N               00000.00
D7870170000700100001C0000064.03N               00000.00
D7870350000800100001C0000033.43N               00000.00
D7870370000900100001C0000033.43N               00000.00
D7870500001000100001C0000064.03N               00000.00
D7870850001100300003C0000064.75N               00000.00
D7872330001200100001C0000033.43N               00000.00
D7873350001300600006C0000033.43N               00000.00
D6300010001400100001C0000006.66N               00000.00
D6990550001500200002C0000013.78N               00000.00
D6505480001601600016C0000023.23N               00000.00
D6540070001700300003C0000017.91N               00000.00
D1033650001800200002C0000010.56N               00000.00
D6520330001900800008C0000027.64N               00000.00
D7770290002000100001C0000007.22N               00000.00
D1025330002101300013C0000002.71Y               00000.00
D4872620002200300003C0000059.05N               00000.00
D7930780002300200002C0000030.61N               00000.00
D8835980002400100001C0000019.49N               00000.00
D8904260002500100001C0000020.56N               00000.00
D9000950002603900039C0000006.52N               00000.00
D6880800002700100001C0000018.16N               00000.00
D1008750002800100001C0000027.07N               00000.00
D8401790002900200002C0000020.14N               00000.00
D8600150003000200002C0000008.96N               00000.00
D8600550003100100001C0000012.55N               00000.00
D9006890003200300003C0000026.31N               00000.00
D9007170003300500005C0000027.40N               00000.00
D8800500003400100001C0000030.32N               00000.00
D8195130003500100001C0000013.86N               00000.00
D8700100003600400004C0000015.87N               00000.00
D8700200003700200002C0000026.40N               00000.00
D8700250003800100001C0000015.44N               00000.00
D8700400003900100001C0000018.12N               00000.00
D9012040004000100001C0000018.82N               00000.00
D9023650004100400004C0000023.82N               00000.00
D8724390004200100001C0000041.60N               00000.00
D9021200004300100001C0000023.29N               00000.00
D7792000004400100001C0000015.18N               00000.00
D6691010004500200002C0000032.45N               00000.00
D7792290004600200002C0000035.70N               00000.00
D9031760004701000010C0000021.64N               00000.00
D7800070004800200002C0000025.38N               00000.00
HTFDF35512420141018                    149238215619597   022010
D0280740000100100001C0000031.62N               00000.00
D0570740000200700007C0000030.05N               00000.00
D1078450000300300003C0000011.97N               00000.00
D1261800000400200002C0000017.85N               00000.00
D2113090000501500015C0000017.87N               00000.00
D1650700000600400004C0000015.21N               00000.00
D6746510000700100001C0000015.92N               00000.00
D1025330000801000010C0000002.71Y               00000.00
D3934080000900100001C0000043.79N               00000.00
D4872620001000300003C0000059.05N               00000.00
D5443810001100400004C0000026.85N               00000.00
D6505480001201200012C0000023.23N               00000.00
D6520330001300600006C0000027.64N               00000.00
D6540070001400300003C0000017.91N               00000.00
D6691010001500300003C0000032.45N               00000.00
D7792820001600100001C0000014.93N               00000.00
D7800070001700200002C0000025.38N               00000.00
D1033650001800200002C0000010.56N               00000.00
D6760260001900100001C0000004.07N               00000.00
D6980140002000100001C0000030.64N               00000.00
D6990550002100200002C0000013.78N               00000.00
D7792290002200100001C0000035.70N               00000.00
D7930780002300300003C0000030.61N               00000.00
D9000950002403000030C0000006.52N               00000.00
D9031760002500700007C0000021.64N               00000.00
D7870090002600200002C0000064.03N               00000.00
D7870130002700100001C0000064.03N               00000.00
D7870350002800100001C0000033.43N               00000.00
D7870850002900300003C0000064.75N               00000.00
D7873350003000200002C0000033.43N               00000.00
D8700100003100200002C0000015.87N               00000.00
D8700400003200100001C0000018.12N               00000.00
D8800500003300100001C0000030.32N               00000.00
D8852220003400100001C0000045.14N               00000.00
D8904260003500100001C0000020.56N               00000.00
D9006890003600200002C0000026.31N               00000.00
D9007170003700200002C0000027.40N               00000.00
D9012040003800200002C0000018.82N               00000.00
D9021200003900200002C0000023.29N               00000.00
D9023650004000300003C0000023.82N               00000.00
HTFDF72654420141018                    149238615619598   276010
D1500150000100100001C0000007.26N               00000.00
D1650410000200100001C0000009.66N               00000.00
D1044460000300100001C0000006.72N               00000.00
D0930400000400100001P0000004.82N               00000.00
D1550300000500100001C0000013.85N               00000.00
D1701100000600700007C0000015.11N               00000.00
D1020250000700100001C0000011.90N               00000.00
D1650730000800100001C0000008.39N               00000.00
D0801180000900100001C0000018.38N               00000.00
D1230760001000100001C0000009.33N               00000.00
D3984350001100100001C0000018.28N               00000.00
D7350500001200200002P0000016.89N               00000.00
D2851050001300100001C0000026.89N               00000.00
D7400590001400100001C0000003.38Y               00000.00
D3986810001500100001C0000012.21N               00000.00
D6690270001600200002P0000006.88N               00000.00
D3947350001700300003C0000015.08N               00000.00
D7460420001800100001P0000017.43N               00000.00
D4837970001900100001C0000066.20N               00000.00
D6640050002000100001P0000002.92N               00000.00
D4837100002100100001C0000050.80N               00000.00
D4837230002200100001C0000081.06N               00000.00
D6930930002300100001C0000027.24N               00000.00
D6626590002400100001P0000008.83N               00000.00
D6850230002500300003P0000003.97N               00000.00
D3631010002600100001C0000033.57N               00000.00
D6930300002700200002C0000024.63N               00000.00
D7713030002800100001C0000012.26N               00000.00
D6800710002900100001C0000016.84N               00000.00
D7800340003000100001C0000026.00N               00000.00
D7744640003100100001C0000011.24N               00000.00
D6601130003200100001P0000008.98N               00000.00
D6620900003300200002C0000030.25N               00000.00
D7870340003400100001C0000034.45N               00000.00
D5501520003500200002C0000087.36N               00000.00
D4871030003600100001C0000128.28N               00000.00
D4881380003700600006C0000078.40N               00000.00
D4929750003800100001C0000056.41N               00000.00
D5091690003900100001C0000050.57N               00000.00
D1037800004000100001C0000049.77N               00000.00
D4511720004100100001C0000072.59N               00000.00
D8870170004200100001C0000029.76N               00000.00
D8850120004300100001C0000011.62N               00000.00
D8870970004400100001C0000064.78N               00000.00
D8700090004500100001C0000017.46N               00000.00
D8729940004600100001C0000014.97N               00000.00
D8723170004700100001C0000020.83N               00000.00
D8751780004800100001P0000003.74N               00000.00
D9020810004900100001C0000061.26N               00000.00
D9285210005000100001C0000022.62N               00000.00
D9308760005100100001C0000072.20N               00000.00
D6620520005200100001P0000012.08N               00000.00
HTFDF35542520141018                    149239015619601   021020
D0280740000100100001C0000031.62N               00000.00
D0570740000200700007C0000030.05N               00000.00
D1078450000300200002C0000011.97N               00000.00
D1261800000400100001C0000017.85N               00000.00
D2113090000500700007C0000017.87N               00000.00
D1008750000600100001C0000027.07N               00000.00
D1650700000700400004C0000015.21N               00000.00
D6746510000800100001C0000015.92N               00000.00
D1025330000900900009C0000002.71Y               00000.00
D4872620001000400004C0000059.05N               00000.00
D5443810001100200002C0000026.85N               00000.00
D6505480001200900009C0000023.23N               00000.00
D6520330001300600006C0000027.64N               00000.00
D6540070001400100001C0000017.91N               00000.00
D6691010001500200002C0000032.45N               00000.00
D7792820001600100001C0000014.93N               00000.00
D1006580001700100001C0000030.64N               00000.00
D1033650001800100001C0000010.56N               00000.00
D6610930001900100001C0000016.89N               00000.00
D6990550002000100001C0000013.78N               00000.00
D7792290002100100001C0000035.70N               00000.00
D7930780002200300003C0000030.61N               00000.00
D8401790002300100001C0000020.14N               00000.00
D8600150002400200002C0000008.96N               00000.00
D8600550002500100001C0000012.55N               00000.00
D9000950002602000020C0000006.52N               00000.00
D9031760002700600006C0000021.64N               00000.00
D7870060002800100001C0000033.75N               00000.00
D7870090002900200002C0000064.03N               00000.00
D7870130003000100001C0000064.03N               00000.00
D7870170003100100001C0000064.03N               00000.00
D7870850003200100001C0000064.75N               00000.00
D7872330003300100001C0000033.43N               00000.00
D7873350003400300003C0000033.43N               00000.00
D8700100003500200002C0000015.87N               00000.00
D8700400003600100001C0000018.12N               00000.00
D8712910003700100001C0000013.95N               00000.00
D8800500003800200002C0000030.32N               00000.00
D8904260003900100001C0000020.56N               00000.00
D9006890004000200002C0000026.31N               00000.00
D9007170004100100001C0000027.40N               00000.00
D9012040004200200002C0000018.82N               00000.00
D9021200004300200002C0000023.29N               00000.00
D9023650004400300003C0000023.82N               00000.00
HTFDF70761520141018                    149239115619602   270030
D0571020000100100001C0000028.20N               00000.00
D0180750000200200002C0000010.99N               00000.00
